{
  "_format": "hh-sol-artifact-1",
  "contractName": "DynamicNFT",
  "sourceName": "contracts/DynamicNFT.sol",
  "abi": [
    {
      "inputs": [
        {
          "internalType": "string",
          "name": "tokenName",
          "type": "string"
        },
        {
          "internalType": "string",
          "name": "symbol",
          "type": "string"
        },
        {
          "internalType": "bytes32",
          "name": "_tellorID",
          "type": "bytes32"
        },
        {
          "internalType": "address payable",
          "name": "_tellorAddress",
          "type": "address"
        }
      ],
      "stateMutability": "nonpayable",
      "type": "constructor"
    },
    {
      "anonymous": false,
      "inputs": [
        {
          "indexed": true,
          "internalType": "address",
          "name": "owner",
          "type": "address"
        },
        {
          "indexed": true,
          "internalType": "address",
          "name": "approved",
          "type": "address"
        },
        {
          "indexed": true,
          "internalType": "uint256",
          "name": "tokenId",
          "type": "uint256"
        }
      ],
      "name": "Approval",
      "type": "event"
    },
    {
      "anonymous": false,
      "inputs": [
        {
          "indexed": true,
          "internalType": "address",
          "name": "owner",
          "type": "address"
        },
        {
          "indexed": true,
          "internalType": "address",
          "name": "operator",
          "type": "address"
        },
        {
          "indexed": false,
          "internalType": "bool",
          "name": "approved",
          "type": "bool"
        }
      ],
      "name": "ApprovalForAll",
      "type": "event"
    },
    {
      "anonymous": false,
      "inputs": [
        {
          "indexed": true,
          "internalType": "address",
          "name": "from",
          "type": "address"
        },
        {
          "indexed": true,
          "internalType": "address",
          "name": "to",
          "type": "address"
        },
        {
          "indexed": true,
          "internalType": "uint256",
          "name": "tokenId",
          "type": "uint256"
        }
      ],
      "name": "Transfer",
      "type": "event"
    },
    {
      "inputs": [
        {
          "internalType": "address",
          "name": "to",
          "type": "address"
        },
        {
          "internalType": "uint256",
          "name": "tokenId",
          "type": "uint256"
        }
      ],
      "name": "approve",
      "outputs": [],
      "stateMutability": "nonpayable",
      "type": "function"
    },
    {
      "inputs": [
        {
          "internalType": "address",
          "name": "owner",
          "type": "address"
        }
      ],
      "name": "balanceOf",
      "outputs": [
        {
          "internalType": "uint256",
          "name": "",
          "type": "uint256"
        }
      ],
      "stateMutability": "view",
      "type": "function"
    },
    {
      "inputs": [
        {
          "internalType": "uint256",
          "name": "tokenId",
          "type": "uint256"
        }
      ],
      "name": "getApproved",
      "outputs": [
        {
          "internalType": "address",
          "name": "",
          "type": "address"
        }
      ],
      "stateMutability": "view",
      "type": "function"
    },
    {
      "inputs": [
        {
          "internalType": "bytes32",
          "name": "_queryId",
          "type": "bytes32"
        }
      ],
      "name": "getCurrentValue",
      "outputs": [
        {
          "internalType": "bool",
          "name": "_ifRetrieve",
          "type": "bool"
        },
        {
          "internalType": "bytes",
          "name": "_value",
          "type": "bytes"
        },
        {
          "internalType": "uint256",
          "name": "_timestampRetrieved",
          "type": "uint256"
        }
      ],
      "stateMutability": "view",
      "type": "function"
    },
    {
      "inputs": [
        {
          "internalType": "bytes32",
          "name": "_queryId",
          "type": "bytes32"
        },
        {
          "internalType": "uint256",
          "name": "_timestamp",
          "type": "uint256"
        }
      ],
      "name": "getDataBefore",
      "outputs": [
        {
          "internalType": "bool",
          "name": "_ifRetrieve",
          "type": "bool"
        },
        {
          "internalType": "bytes",
          "name": "_value",
          "type": "bytes"
        },
        {
          "internalType": "uint256",
          "name": "_timestampRetrieved",
          "type": "uint256"
        }
      ],
      "stateMutability": "view",
      "type": "function"
    },
    {
      "inputs": [
        {
          "internalType": "bytes32",
          "name": "_queryId",
          "type": "bytes32"
        },
        {
          "internalType": "uint256",
          "name": "_timestamp",
          "type": "uint256"
        }
      ],
      "name": "getIndexForDataBefore",
      "outputs": [
        {
          "internalType": "bool",
          "name": "_found",
          "type": "bool"
        },
        {
          "internalType": "uint256",
          "name": "_index",
          "type": "uint256"
        }
      ],
      "stateMutability": "view",
      "type": "function"
    },
    {
      "inputs": [
        {
          "internalType": "bytes32",
          "name": "_queryId",
          "type": "bytes32"
        }
      ],
      "name": "getNewValueCountbyQueryId",
      "outputs": [
        {
          "internalType": "uint256",
          "name": "",
          "type": "uint256"
        }
      ],
      "stateMutability": "view",
      "type": "function"
    },
    {
      "inputs": [
        {
          "internalType": "uint256",
          "name": "_id",
          "type": "uint256"
        }
      ],
      "name": "getStartPrice",
      "outputs": [
        {
          "internalType": "uint256",
          "name": "",
          "type": "uint256"
        }
      ],
      "stateMutability": "view",
      "type": "function"
    },
    {
      "inputs": [
        {
          "internalType": "bytes32",
          "name": "_queryId",
          "type": "bytes32"
        },
        {
          "internalType": "uint256",
          "name": "_index",
          "type": "uint256"
        }
      ],
      "name": "getTimestampbyQueryIdandIndex",
      "outputs": [
        {
          "internalType": "uint256",
          "name": "",
          "type": "uint256"
        }
      ],
      "stateMutability": "view",
      "type": "function"
    },
    {
      "inputs": [
        {
          "internalType": "address",
          "name": "owner",
          "type": "address"
        },
        {
          "internalType": "address",
          "name": "operator",
          "type": "address"
        }
      ],
      "name": "isApprovedForAll",
      "outputs": [
        {
          "internalType": "bool",
          "name": "",
          "type": "bool"
        }
      ],
      "stateMutability": "view",
      "type": "function"
    },
    {
      "inputs": [
        {
          "internalType": "bytes32",
          "name": "_queryId",
          "type": "bytes32"
        },
        {
          "internalType": "uint256",
          "name": "_timestamp",
          "type": "uint256"
        }
      ],
      "name": "isInDispute",
      "outputs": [
        {
          "internalType": "bool",
          "name": "",
          "type": "bool"
        }
      ],
      "stateMutability": "view",
      "type": "function"
    },
    {
      "inputs": [],
      "name": "metadataURI_down",
      "outputs": [
        {
          "internalType": "string",
          "name": "",
          "type": "string"
        }
      ],
      "stateMutability": "view",
      "type": "function"
    },
    {
      "inputs": [],
      "name": "metadataURI_up",
      "outputs": [
        {
          "internalType": "string",
          "name": "",
          "type": "string"
        }
      ],
      "stateMutability": "view",
      "type": "function"
    },
    {
      "inputs": [
        {
          "internalType": "address",
          "name": "_owner",
          "type": "address"
        }
      ],
      "name": "mintToken",
      "outputs": [
        {
          "internalType": "uint256",
          "name": "_id",
          "type": "uint256"
        }
      ],
      "stateMutability": "nonpayable",
      "type": "function"
    },
    {
      "inputs": [],
      "name": "name",
      "outputs": [
        {
          "internalType": "string",
          "name": "",
          "type": "string"
        }
      ],
      "stateMutability": "view",
      "type": "function"
    },
    {
      "inputs": [
        {
          "internalType": "uint256",
          "name": "tokenId",
          "type": "uint256"
        }
      ],
      "name": "ownerOf",
      "outputs": [
        {
          "internalType": "address",
          "name": "",
          "type": "address"
        }
      ],
      "stateMutability": "view",
      "type": "function"
    },
    {
      "inputs": [
        {
          "internalType": "bytes32",
          "name": "_queryId",
          "type": "bytes32"
        },
        {
          "internalType": "uint256",
          "name": "_timestamp",
          "type": "uint256"
        }
      ],
      "name": "retrieveData",
      "outputs": [
        {
          "internalType": "bytes",
          "name": "",
          "type": "bytes"
        }
      ],
      "stateMutability": "view",
      "type": "function"
    },
    {
      "inputs": [
        {
          "internalType": "address",
          "name": "from",
          "type": "address"
        },
        {
          "internalType": "address",
          "name": "to",
          "type": "address"
        },
        {
          "internalType": "uint256",
          "name": "tokenId",
          "type": "uint256"
        }
      ],
      "name": "safeTransferFrom",
      "outputs": [],
      "stateMutability": "nonpayable",
      "type": "function"
    },
    {
      "inputs": [
        {
          "internalType": "address",
          "name": "from",
          "type": "address"
        },
        {
          "internalType": "address",
          "name": "to",
          "type": "address"
        },
        {
          "internalType": "uint256",
          "name": "tokenId",
          "type": "uint256"
        },
        {
          "internalType": "bytes",
          "name": "data",
          "type": "bytes"
        }
      ],
      "name": "safeTransferFrom",
      "outputs": [],
      "stateMutability": "nonpayable",
      "type": "function"
    },
    {
      "inputs": [
        {
          "internalType": "address",
          "name": "operator",
          "type": "address"
        },
        {
          "internalType": "bool",
          "name": "approved",
          "type": "bool"
        }
      ],
      "name": "setApprovalForAll",
      "outputs": [],
      "stateMutability": "nonpayable",
      "type": "function"
    },
    {
      "inputs": [],
      "name": "supply",
      "outputs": [
        {
          "internalType": "uint256",
          "name": "",
          "type": "uint256"
        }
      ],
      "stateMutability": "view",
      "type": "function"
    },
    {
      "inputs": [
        {
          "internalType": "bytes4",
          "name": "interfaceId",
          "type": "bytes4"
        }
      ],
      "name": "supportsInterface",
      "outputs": [
        {
          "internalType": "bool",
          "name": "",
          "type": "bool"
        }
      ],
      "stateMutability": "view",
      "type": "function"
    },
    {
      "inputs": [],
      "name": "symbol",
      "outputs": [
        {
          "internalType": "string",
          "name": "",
          "type": "string"
        }
      ],
      "stateMutability": "view",
      "type": "function"
    },
    {
      "inputs": [],
      "name": "tellor",
      "outputs": [
        {
          "internalType": "contract ITellor",
          "name": "",
          "type": "address"
        }
      ],
      "stateMutability": "view",
      "type": "function"
    },
    {
      "inputs": [],
      "name": "tellorID",
      "outputs": [
        {
          "internalType": "bytes32",
          "name": "",
          "type": "bytes32"
        }
      ],
      "stateMutability": "view",
      "type": "function"
    },
    {
      "inputs": [
        {
          "internalType": "uint256",
          "name": "tokenId",
          "type": "uint256"
        }
      ],
      "name": "tokenURI",
      "outputs": [
        {
          "internalType": "string",
          "name": "",
          "type": "string"
        }
      ],
      "stateMutability": "view",
      "type": "function"
    },
    {
      "inputs": [
        {
          "internalType": "address",
          "name": "from",
          "type": "address"
        },
        {
          "internalType": "address",
          "name": "to",
          "type": "address"
        },
        {
          "internalType": "uint256",
          "name": "tokenId",
          "type": "uint256"
        }
      ],
      "name": "transferFrom",
      "outputs": [],
      "stateMutability": "nonpayable",
      "type": "function"
    },
    {
      "inputs": [
        {
          "internalType": "uint256",
          "name": "_id",
          "type": "uint256"
        }
      ],
      "name": "updateURI",
      "outputs": [],
      "stateMutability": "nonpayable",
      "type": "function"
    }
  ],
  "bytecode": "0x60806040523480156200001157600080fd5b50604051620043cc380380620043cc8339818101604052810190620000379190620003ae565b808484816000908051906020019062000052929190620000c1565b5080600190805190602001906200006b929190620000c1565b50505080600760006101000a81548173ffffffffffffffffffffffffffffffffffffffff021916908373ffffffffffffffffffffffffffffffffffffffff160217905550508160088190555050505050620004c3565b828054620000cf906200048d565b90600052602060002090601f016020900481019282620000f357600085556200013f565b82601f106200010e57805160ff19168380011785556200013f565b828001600101855582156200013f579182015b828111156200013e57825182559160200191906001019062000121565b5b5090506200014e919062000152565b5090565b5b808211156200016d57600081600090555060010162000153565b5090565b6000604051905090565b600080fd5b600080fd5b600080fd5b600080fd5b6000601f19601f8301169050919050565b7f4e487b7100000000000000000000000000000000000000000000000000000000600052604160045260246000fd5b620001da826200018f565b810181811067ffffffffffffffff82111715620001fc57620001fb620001a0565b5b80604052505050565b60006200021162000171565b90506200021f8282620001cf565b919050565b600067ffffffffffffffff821115620002425762000241620001a0565b5b6200024d826200018f565b9050602081019050919050565b60005b838110156200027a5780820151818401526020810190506200025d565b838111156200028a576000848401525b50505050565b6000620002a7620002a18462000224565b62000205565b905082815260208101848484011115620002c657620002c56200018a565b5b620002d38482856200025a565b509392505050565b600082601f830112620002f357620002f262000185565b5b81516200030584826020860162000290565b91505092915050565b6000819050919050565b62000323816200030e565b81146200032f57600080fd5b50565b600081519050620003438162000318565b92915050565b600073ffffffffffffffffffffffffffffffffffffffff82169050919050565b6000620003768262000349565b9050919050565b620003888162000369565b81146200039457600080fd5b50565b600081519050620003a8816200037d565b92915050565b60008060008060808587031215620003cb57620003ca6200017b565b5b600085015167ffffffffffffffff811115620003ec57620003eb62000180565b5b620003fa87828801620002db565b945050602085015167ffffffffffffffff8111156200041e576200041d62000180565b5b6200042c87828801620002db565b93505060406200043f8782880162000332565b9250506060620004528782880162000397565b91505092959194509250565b7f4e487b7100000000000000000000000000000000000000000000000000000000600052602260045260246000fd5b60006002820490506001821680620004a657607f821691505b60208210811415620004bd57620004bc6200045e565b5b50919050565b613ef980620004d36000396000f3fe608060405234801561001057600080fd5b50600436106101c45760003560e01c806370a08231116100f9578063adf1639d11610097578063c87b56dd11610071578063c87b56dd14610558578063ce5e11bf14610588578063d2df9240146105b8578063e985e9c5146105e8576101c4565b8063adf1639d146104da578063b88d4fde1461050c578063c5958af914610528576101c4565b806395d89b41116100d357806395d89b41146104505780639f1793691461046e578063a22cb4651461048c578063a792765f146104a8576101c4565b806370a08231146103d257806376f0154f1461040257806377b03e0d14610420576101c4565b806323b872dd1161016657806342842e0e1161014057806342842e0e1461033857806344e87f91146103545780636352211e14610384578063641348ac146103b4576101c4565b806323b872dd146102cf57806329449085146102eb5780634261e65d1461031c576101c4565b806306fdde03116101a257806306fdde0314610247578063081812fc14610265578063095ea7b3146102955780631959ad5b146102b1576101c4565b806301173a74146101c957806301ffc9a7146101f9578063047fc9aa14610229575b600080fd5b6101e360048036038101906101de9190612a7f565b610618565b6040516101f09190612ac5565b60405180910390f35b610213600480360381019061020e9190612b38565b6106c6565b6040516102209190612b80565b60405180910390f35b6102316106d8565b60405161023e9190612ac5565b60405180910390f35b61024f6106de565b60405161025c9190612c34565b60405180910390f35b61027f600480360381019061027a9190612c82565b610770565b60405161028c9190612cbe565b60405180910390f35b6102af60048036038101906102aa9190612cd9565b6107b6565b005b6102b96108ce565b6040516102c69190612d78565b60405180910390f35b6102e960048036038101906102e49190612d93565b6108f4565b005b61030560048036038101906103009190612e1c565b610954565b604051610313929190612e5c565b60405180910390f35b61033660048036038101906103319190612c82565b610acf565b005b610352600480360381019061034d9190612d93565b610b7f565b005b61036e60048036038101906103699190612e1c565b610b9f565b60405161037b9190612b80565b60405180910390f35b61039e60048036038101906103999190612c82565b610ea8565b6040516103ab9190612cbe565b60405180910390f35b6103bc610f5a565b6040516103c99190612e94565b60405180910390f35b6103ec60048036038101906103e79190612a7f565b610f60565b6040516103f99190612ac5565b60405180910390f35b61040a611018565b6040516104179190612c34565b60405180910390f35b61043a60048036038101906104359190612eaf565b611034565b6040516104479190612ac5565b60405180910390f35b610458611271565b6040516104659190612c34565b60405180910390f35b610476611303565b6040516104839190612c34565b60405180910390f35b6104a660048036038101906104a19190612f08565b61131f565b005b6104c260048036038101906104bd9190612e1c565b611335565b6040516104d193929190612f9d565b60405180910390f35b6104f460048036038101906104ef9190612eaf565b6113e7565b60405161050393929190612f9d565b60405180910390f35b61052660048036038101906105219190613110565b6114a0565b005b610542600480360381019061053d9190612e1c565b611502565b60405161054f9190613193565b60405180910390f35b610572600480360381019061056d9190612c82565b61174e565b60405161057f9190612c34565b60405180910390f35b6105a2600480360381019061059d9190612e1c565b611760565b6040516105af9190612ac5565b60405180910390f35b6105d260048036038101906105cd9190612c82565b6119a2565b6040516105df9190612ac5565b60405180910390f35b61060260048036038101906105fd91906131b5565b6119bf565b60405161060f9190612b80565b60405180910390f35b60006009600081548092919061062d90613224565b919050555060095490506000806106536008546107084261064e919061326d565b611335565b50915091508161066257600080fd5b60008180602001905181019061067891906132b6565b905080600a60008681526020019081526020016000208190555061069c8585611a53565b6106be84604051806060016040528060358152602001613e8f60359139611a71565b505050919050565b60006106d182611ae5565b9050919050565b60095481565b6060600080546106ed90613312565b80601f016020809104026020016040519081016040528092919081815260200182805461071990613312565b80156107665780601f1061073b57610100808354040283529160200191610766565b820191906000526020600020905b81548152906001019060200180831161074957829003601f168201915b5050505050905090565b600061077b82611bc7565b6004600083815260200190815260200160002060009054906101000a900473ffffffffffffffffffffffffffffffffffffffff169050919050565b60006107c182610ea8565b90508073ffffffffffffffffffffffffffffffffffffffff168373ffffffffffffffffffffffffffffffffffffffff161415610832576040517f08c379a0000000000000000000000000000000000000000000000000000000008152600401610829906133b6565b60405180910390fd5b8073ffffffffffffffffffffffffffffffffffffffff16610851611c12565b73ffffffffffffffffffffffffffffffffffffffff161480610880575061087f8161087a611c12565b6119bf565b5b6108bf576040517f08c379a00000000000000000000000000000000000000000000000000000000081526004016108b690613448565b60405180910390fd5b6108c98383611c1a565b505050565b600760009054906101000a900473ffffffffffffffffffffffffffffffffffffffff1681565b6109056108ff611c12565b82611cd3565b610944576040517f08c379a000000000000000000000000000000000000000000000000000000000815260040161093b906134da565b60405180910390fd5b61094f838383611d68565b505050565b600080600061096285611034565b90506000811115610abf57600080600090506000600184610983919061326d565b905060006109918984611760565b90508781106109ab57600080965096505050505050610ac8565b6109b58983611760565b9050878110156109d057600182965096505050505050610ac8565b5b600115610aba57826001600285856109e9919061326d565b6109f39190613529565b6109fd919061355a565b610a07919061355a565b9350610a138985611760565b905087811015610a65576000610a358a600187610a30919061355a565b611760565b9050888110610a505760018597509750505050505050610ac8565b600185610a5d919061355a565b935050610ab5565b6000610a7d8a600187610a78919061326d565b611760565b905088811015610aa45760018086610a95919061326d565b97509750505050505050610ac8565b600185610ab1919061326d565b9250505b6109d1565b505050505b60008092509250505b9250929050565b600080610aeb60085461070842610ae6919061326d565b611335565b509150915081610afc575050610b7c565b600081806020019051810190610b1291906132b6565b9050600a6000858152602001908152602001600020548110610b5557610b5084604051806060016040528060358152602001613e8f60359139611a71565b610b78565b610b7784604051806060016040528060358152602001613e8f60359139611a71565b5b5050505b50565b610b9a838383604051806020016040528060008152506114a0565b505050565b6000807318431fd88adf138e8b979a7246eb58ea7126ea1673ffffffffffffffffffffffffffffffffffffffff16600760009054906101000a900473ffffffffffffffffffffffffffffffffffffffff1673ffffffffffffffffffffffffffffffffffffffff161480610c73575073e8218cacb0a5421bc6409e498d9f8cc8869945ea73ffffffffffffffffffffffffffffffffffffffff16600760009054906101000a900473ffffffffffffffffffffffffffffffffffffffff1673ffffffffffffffffffffffffffffffffffffffff16145b15610d425760007388df592f8eb5d7bd38bfef7deb0fbc02cf3778a090508073ffffffffffffffffffffffffffffffffffffffff1663699f200f7fefa19baa864049f50491093580c5433e97e8d5e41f8db1a61108b4fa44cacd936040518263ffffffff1660e01b8152600401610cea91906135f8565b60206040518083038186803b158015610d0257600080fd5b505afa158015610d16573d6000803e3d6000fd5b505050506040513d601f19601f82011682018060405250810190610d3a9190613628565b915050610de5565b600760009054906101000a900473ffffffffffffffffffffffffffffffffffffffff1673ffffffffffffffffffffffffffffffffffffffff16635aa6e6756040518163ffffffff1660e01b815260040160206040518083038186803b158015610daa57600080fd5b505afa158015610dbe573d6000803e3d6000fd5b505050506040513d601f19601f82011682018060405250810190610de29190613628565b90505b60008173ffffffffffffffffffffffffffffffffffffffff1663248638e58686604051602001610e16929190613697565b604051602081830303815290604052805190602001206040518263ffffffff1660e01b8152600401610e489190612e94565b60006040518083038186803b158015610e6057600080fd5b505afa158015610e74573d6000803e3d6000fd5b505050506040513d6000823e3d601f19601f82011682018060405250810190610e9d919061378b565b511191505092915050565b6000806002600084815260200190815260200160002060009054906101000a900473ffffffffffffffffffffffffffffffffffffffff169050600073ffffffffffffffffffffffffffffffffffffffff168173ffffffffffffffffffffffffffffffffffffffff161415610f51576040517f08c379a0000000000000000000000000000000000000000000000000000000008152600401610f4890613820565b60405180910390fd5b80915050919050565b60085481565b60008073ffffffffffffffffffffffffffffffffffffffff168273ffffffffffffffffffffffffffffffffffffffff161415610fd1576040517f08c379a0000000000000000000000000000000000000000000000000000000008152600401610fc8906138b2565b60405180910390fd5b600360008373ffffffffffffffffffffffffffffffffffffffff1673ffffffffffffffffffffffffffffffffffffffff168152602001908152602001600020549050919050565b604051806060016040528060358152602001613e8f6035913981565b60007318431fd88adf138e8b979a7246eb58ea7126ea1673ffffffffffffffffffffffffffffffffffffffff16600760009054906101000a900473ffffffffffffffffffffffffffffffffffffffff1673ffffffffffffffffffffffffffffffffffffffff161480611107575073e8218cacb0a5421bc6409e498d9f8cc8869945ea73ffffffffffffffffffffffffffffffffffffffff16600760009054906101000a900473ffffffffffffffffffffffffffffffffffffffff1673ffffffffffffffffffffffffffffffffffffffff16145b156111be57600760009054906101000a900473ffffffffffffffffffffffffffffffffffffffff1673ffffffffffffffffffffffffffffffffffffffff166335e72432836040518263ffffffff1660e01b81526004016111679190612e94565b60206040518083038186803b15801561117f57600080fd5b505afa158015611193573d6000803e3d6000fd5b505050506040513d601f19601f820116820180604052508101906111b791906132b6565b905061126c565b600760009054906101000a900473ffffffffffffffffffffffffffffffffffffffff1673ffffffffffffffffffffffffffffffffffffffff166377b03e0d836040518263ffffffff1660e01b81526004016112199190612e94565b60206040518083038186803b15801561123157600080fd5b505afa158015611245573d6000803e3d6000fd5b505050506040513d601f19601f8201168201806040525081019061126991906132b6565b90505b919050565b60606001805461128090613312565b80601f01602080910402602001604051908101604052809291908181526020018280546112ac90613312565b80156112f95780601f106112ce576101008083540402835291602001916112f9565b820191906000526020600020905b8154815290600101906020018083116112dc57829003601f168201915b5050505050905090565b604051806060016040528060358152602001613e8f6035913981565b61133161132a611c12565b8383611fcf565b5050565b6000606060008060006113488787610954565b915091508161137257600060405180602001604052806000815250600094509450945050506113e0565b600061137e8883611760565b905061138a8882611502565b945060405180602001604052806000815250805190602001208580519060200120146113c257600185829550955095505050506113e0565b60006040518060200160405280600081525060009550955095505050505b9250925092565b600060606000806113f785611034565b9050600081141561142257600060405180602001604052806000815250600093509350935050611499565b600061143a86600184611435919061326d565b611760565b90506114468682611502565b9350604051806020016040528060008152508051906020012084805190602001201461147d57600184829450945094505050611499565b6000604051806020016040528060008152508294509450945050505b9193909250565b6114b16114ab611c12565b83611cd3565b6114f0576040517f08c379a00000000000000000000000000000000000000000000000000000000081526004016114e7906134da565b60405180910390fd5b6114fc8484848461213c565b50505050565b60607318431fd88adf138e8b979a7246eb58ea7126ea1673ffffffffffffffffffffffffffffffffffffffff16600760009054906101000a900473ffffffffffffffffffffffffffffffffffffffff1673ffffffffffffffffffffffffffffffffffffffff1614806115d5575073e8218cacb0a5421bc6409e498d9f8cc8869945ea73ffffffffffffffffffffffffffffffffffffffff16600760009054906101000a900473ffffffffffffffffffffffffffffffffffffffff1673ffffffffffffffffffffffffffffffffffffffff16145b1561169357600760009054906101000a900473ffffffffffffffffffffffffffffffffffffffff1673ffffffffffffffffffffffffffffffffffffffff16630b2d2b0d84846040518363ffffffff1660e01b81526004016116379291906138d2565b60006040518083038186803b15801561164f57600080fd5b505afa158015611663573d6000803e3d6000fd5b505050506040513d6000823e3d601f19601f8201168201806040525081019061168c919061396b565b9050611748565b600760009054906101000a900473ffffffffffffffffffffffffffffffffffffffff1673ffffffffffffffffffffffffffffffffffffffff1663c5958af984846040518363ffffffff1660e01b81526004016116f09291906138d2565b60006040518083038186803b15801561170857600080fd5b505afa15801561171c573d6000803e3d6000fd5b505050506040513d6000823e3d601f19601f82011682018060405250810190611745919061396b565b90505b92915050565b606061175982612198565b9050919050565b60007318431fd88adf138e8b979a7246eb58ea7126ea1673ffffffffffffffffffffffffffffffffffffffff16600760009054906101000a900473ffffffffffffffffffffffffffffffffffffffff1673ffffffffffffffffffffffffffffffffffffffff161480611833575073e8218cacb0a5421bc6409e498d9f8cc8869945ea73ffffffffffffffffffffffffffffffffffffffff16600760009054906101000a900473ffffffffffffffffffffffffffffffffffffffff1673ffffffffffffffffffffffffffffffffffffffff16145b156118ec57600760009054906101000a900473ffffffffffffffffffffffffffffffffffffffff1673ffffffffffffffffffffffffffffffffffffffff16637c37b8b484846040518363ffffffff1660e01b81526004016118959291906138d2565b60206040518083038186803b1580156118ad57600080fd5b505afa1580156118c1573d6000803e3d6000fd5b505050506040513d601f19601f820116820180604052508101906118e591906132b6565b905061199c565b600760009054906101000a900473ffffffffffffffffffffffffffffffffffffffff1673ffffffffffffffffffffffffffffffffffffffff1663ce5e11bf84846040518363ffffffff1660e01b81526004016119499291906138d2565b60206040518083038186803b15801561196157600080fd5b505afa158015611975573d6000803e3d6000fd5b505050506040513d601f19601f8201168201806040525081019061199991906132b6565b90505b92915050565b6000600a6000838152602001908152602001600020549050919050565b6000600560008473ffffffffffffffffffffffffffffffffffffffff1673ffffffffffffffffffffffffffffffffffffffff16815260200190815260200160002060008373ffffffffffffffffffffffffffffffffffffffff1673ffffffffffffffffffffffffffffffffffffffff16815260200190815260200160002060009054906101000a900460ff16905092915050565b611a6d8282604051806020016040528060008152506122ab565b5050565b611a7a82612306565b611ab9576040517f08c379a0000000000000000000000000000000000000000000000000000000008152600401611ab090613a26565b60405180910390fd5b80600660008481526020019081526020016000209080519060200190611ae092919061296a565b505050565b60007f80ac58cd000000000000000000000000000000000000000000000000000000007bffffffffffffffffffffffffffffffffffffffffffffffffffffffff1916827bffffffffffffffffffffffffffffffffffffffffffffffffffffffff19161480611bb057507f5b5e139f000000000000000000000000000000000000000000000000000000007bffffffffffffffffffffffffffffffffffffffffffffffffffffffff1916827bffffffffffffffffffffffffffffffffffffffffffffffffffffffff1916145b80611bc05750611bbf82612372565b5b9050919050565b611bd081612306565b611c0f576040517f08c379a0000000000000000000000000000000000000000000000000000000008152600401611c0690613820565b60405180910390fd5b50565b600033905090565b816004600083815260200190815260200160002060006101000a81548173ffffffffffffffffffffffffffffffffffffffff021916908373ffffffffffffffffffffffffffffffffffffffff160217905550808273ffffffffffffffffffffffffffffffffffffffff16611c8d83610ea8565b73ffffffffffffffffffffffffffffffffffffffff167f8c5be1e5ebec7d5bd14f71427d1e84f3dd0314c0f7b2291e5b200ac8c7c3b92560405160405180910390a45050565b600080611cdf83610ea8565b90508073ffffffffffffffffffffffffffffffffffffffff168473ffffffffffffffffffffffffffffffffffffffff161480611d215750611d2081856119bf565b5b80611d5f57508373ffffffffffffffffffffffffffffffffffffffff16611d4784610770565b73ffffffffffffffffffffffffffffffffffffffff16145b91505092915050565b8273ffffffffffffffffffffffffffffffffffffffff16611d8882610ea8565b73ffffffffffffffffffffffffffffffffffffffff1614611dde576040517f08c379a0000000000000000000000000000000000000000000000000000000008152600401611dd590613ab8565b60405180910390fd5b600073ffffffffffffffffffffffffffffffffffffffff168273ffffffffffffffffffffffffffffffffffffffff161415611e4e576040517f08c379a0000000000000000000000000000000000000000000000000000000008152600401611e4590613b4a565b60405180910390fd5b611e598383836123dc565b611e64600082611c1a565b6001600360008573ffffffffffffffffffffffffffffffffffffffff1673ffffffffffffffffffffffffffffffffffffffff1681526020019081526020016000206000828254611eb4919061326d565b925050819055506001600360008473ffffffffffffffffffffffffffffffffffffffff1673ffffffffffffffffffffffffffffffffffffffff1681526020019081526020016000206000828254611f0b919061355a565b92505081905550816002600083815260200190815260200160002060006101000a81548173ffffffffffffffffffffffffffffffffffffffff021916908373ffffffffffffffffffffffffffffffffffffffff160217905550808273ffffffffffffffffffffffffffffffffffffffff168473ffffffffffffffffffffffffffffffffffffffff167fddf252ad1be2c89b69c2b068fc378daa952ba7f163c4a11628f55a4df523b3ef60405160405180910390a4611fca8383836123ec565b505050565b8173ffffffffffffffffffffffffffffffffffffffff168373ffffffffffffffffffffffffffffffffffffffff16141561203e576040517f08c379a000000000000000000000000000000000000000000000000000000000815260040161203590613bb6565b60405180910390fd5b80600560008573ffffffffffffffffffffffffffffffffffffffff1673ffffffffffffffffffffffffffffffffffffffff16815260200190815260200160002060008473ffffffffffffffffffffffffffffffffffffffff1673ffffffffffffffffffffffffffffffffffffffff16815260200190815260200160002060006101000a81548160ff0219169083151502179055508173ffffffffffffffffffffffffffffffffffffffff168373ffffffffffffffffffffffffffffffffffffffff167f17307eab39ab6107e8899845ad3d59bd9653f200f220920489ca2b5937696c318360405161212f9190612b80565b60405180910390a3505050565b612147848484611d68565b612153848484846123f1565b612192576040517f08c379a000000000000000000000000000000000000000000000000000000000815260040161218990613c48565b60405180910390fd5b50505050565b60606121a382611bc7565b60006006600084815260200190815260200160002080546121c390613312565b80601f01602080910402602001604051908101604052809291908181526020018280546121ef90613312565b801561223c5780601f106122115761010080835404028352916020019161223c565b820191906000526020600020905b81548152906001019060200180831161221f57829003601f168201915b50505050509050600061224d612588565b90506000815114156122635781925050506122a6565b600082511115612298578082604051602001612280929190613ca4565b604051602081830303815290604052925050506122a6565b6122a18461259f565b925050505b919050565b6122b58383612607565b6122c260008484846123f1565b612301576040517f08c379a00000000000000000000000000000000000000000000000000000000081526004016122f890613c48565b60405180910390fd5b505050565b60008073ffffffffffffffffffffffffffffffffffffffff166002600084815260200190815260200160002060009054906101000a900473ffffffffffffffffffffffffffffffffffffffff1673ffffffffffffffffffffffffffffffffffffffff1614159050919050565b60007f01ffc9a7000000000000000000000000000000000000000000000000000000007bffffffffffffffffffffffffffffffffffffffffffffffffffffffff1916827bffffffffffffffffffffffffffffffffffffffffffffffffffffffff1916149050919050565b6123e78383836127e1565b505050565b505050565b60006124128473ffffffffffffffffffffffffffffffffffffffff166127e6565b1561257b578373ffffffffffffffffffffffffffffffffffffffff1663150b7a0261243b611c12565b8786866040518563ffffffff1660e01b815260040161245d9493929190613cc8565b602060405180830381600087803b15801561247757600080fd5b505af19250505080156124a857506040513d601f19601f820116820180604052508101906124a59190613d29565b60015b61252b573d80600081146124d8576040519150601f19603f3d011682016040523d82523d6000602084013e6124dd565b606091505b50600081511415612523576040517f08c379a000000000000000000000000000000000000000000000000000000000815260040161251a90613c48565b60405180910390fd5b805181602001fd5b63150b7a0260e01b7bffffffffffffffffffffffffffffffffffffffffffffffffffffffff1916817bffffffffffffffffffffffffffffffffffffffffffffffffffffffff191614915050612580565b600190505b949350505050565b606060405180602001604052806000815250905090565b60606125aa82611bc7565b60006125b4612588565b905060008151116125d457604051806020016040528060008152506125ff565b806125de84612809565b6040516020016125ef929190613ca4565b6040516020818303038152906040525b915050919050565b600073ffffffffffffffffffffffffffffffffffffffff168273ffffffffffffffffffffffffffffffffffffffff161415612677576040517f08c379a000000000000000000000000000000000000000000000000000000000815260040161266e90613da2565b60405180910390fd5b61268081612306565b156126c0576040517f08c379a00000000000000000000000000000000000000000000000000000000081526004016126b790613e0e565b60405180910390fd5b6126cc600083836123dc565b6001600360008473ffffffffffffffffffffffffffffffffffffffff1673ffffffffffffffffffffffffffffffffffffffff168152602001908152602001600020600082825461271c919061355a565b92505081905550816002600083815260200190815260200160002060006101000a81548173ffffffffffffffffffffffffffffffffffffffff021916908373ffffffffffffffffffffffffffffffffffffffff160217905550808273ffffffffffffffffffffffffffffffffffffffff16600073ffffffffffffffffffffffffffffffffffffffff167fddf252ad1be2c89b69c2b068fc378daa952ba7f163c4a11628f55a4df523b3ef60405160405180910390a46127dd600083836123ec565b5050565b505050565b6000808273ffffffffffffffffffffffffffffffffffffffff163b119050919050565b60606000821415612851576040518060400160405280600181526020017f30000000000000000000000000000000000000000000000000000000000000008152509050612965565b600082905060005b6000821461288357808061286c90613224565b915050600a8261287c9190613529565b9150612859565b60008167ffffffffffffffff81111561289f5761289e612fe5565b5b6040519080825280601f01601f1916602001820160405280156128d15781602001600182028036833780820191505090505b5090505b6000851461295e576001826128ea919061326d565b9150600a856128f99190613e2e565b6030612905919061355a565b60f81b81838151811061291b5761291a613e5f565b5b60200101907effffffffffffffffffffffffffffffffffffffffffffffffffffffffffffff1916908160001a905350600a856129579190613529565b94506128d5565b8093505050505b919050565b82805461297690613312565b90600052602060002090601f01602090048101928261299857600085556129df565b82601f106129b157805160ff19168380011785556129df565b828001600101855582156129df579182015b828111156129de5782518255916020019190600101906129c3565b5b5090506129ec91906129f0565b5090565b5b80821115612a095760008160009055506001016129f1565b5090565b6000604051905090565b600080fd5b600080fd5b600073ffffffffffffffffffffffffffffffffffffffff82169050919050565b6000612a4c82612a21565b9050919050565b612a5c81612a41565b8114612a6757600080fd5b50565b600081359050612a7981612a53565b92915050565b600060208284031215612a9557612a94612a17565b5b6000612aa384828501612a6a565b91505092915050565b6000819050919050565b612abf81612aac565b82525050565b6000602082019050612ada6000830184612ab6565b92915050565b60007fffffffff0000000000000000000000000000000000000000000000000000000082169050919050565b612b1581612ae0565b8114612b2057600080fd5b50565b600081359050612b3281612b0c565b92915050565b600060208284031215612b4e57612b4d612a17565b5b6000612b5c84828501612b23565b91505092915050565b60008115159050919050565b612b7a81612b65565b82525050565b6000602082019050612b956000830184612b71565b92915050565b600081519050919050565b600082825260208201905092915050565b60005b83811015612bd5578082015181840152602081019050612bba565b83811115612be4576000848401525b50505050565b6000601f19601f8301169050919050565b6000612c0682612b9b565b612c108185612ba6565b9350612c20818560208601612bb7565b612c2981612bea565b840191505092915050565b60006020820190508181036000830152612c4e8184612bfb565b905092915050565b612c5f81612aac565b8114612c6a57600080fd5b50565b600081359050612c7c81612c56565b92915050565b600060208284031215612c9857612c97612a17565b5b6000612ca684828501612c6d565b91505092915050565b612cb881612a41565b82525050565b6000602082019050612cd36000830184612caf565b92915050565b60008060408385031215612cf057612cef612a17565b5b6000612cfe85828601612a6a565b9250506020612d0f85828601612c6d565b9150509250929050565b6000819050919050565b6000612d3e612d39612d3484612a21565b612d19565b612a21565b9050919050565b6000612d5082612d23565b9050919050565b6000612d6282612d45565b9050919050565b612d7281612d57565b82525050565b6000602082019050612d8d6000830184612d69565b92915050565b600080600060608486031215612dac57612dab612a17565b5b6000612dba86828701612a6a565b9350506020612dcb86828701612a6a565b9250506040612ddc86828701612c6d565b9150509250925092565b6000819050919050565b612df981612de6565b8114612e0457600080fd5b50565b600081359050612e1681612df0565b92915050565b60008060408385031215612e3357612e32612a17565b5b6000612e4185828601612e07565b9250506020612e5285828601612c6d565b9150509250929050565b6000604082019050612e716000830185612b71565b612e7e6020830184612ab6565b9392505050565b612e8e81612de6565b82525050565b6000602082019050612ea96000830184612e85565b92915050565b600060208284031215612ec557612ec4612a17565b5b6000612ed384828501612e07565b91505092915050565b612ee581612b65565b8114612ef057600080fd5b50565b600081359050612f0281612edc565b92915050565b60008060408385031215612f1f57612f1e612a17565b5b6000612f2d85828601612a6a565b9250506020612f3e85828601612ef3565b9150509250929050565b600081519050919050565b600082825260208201905092915050565b6000612f6f82612f48565b612f798185612f53565b9350612f89818560208601612bb7565b612f9281612bea565b840191505092915050565b6000606082019050612fb26000830186612b71565b8181036020830152612fc48185612f64565b9050612fd36040830184612ab6565b949350505050565b600080fd5b600080fd5b7f4e487b7100000000000000000000000000000000000000000000000000000000600052604160045260246000fd5b61301d82612bea565b810181811067ffffffffffffffff8211171561303c5761303b612fe5565b5b80604052505050565b600061304f612a0d565b905061305b8282613014565b919050565b600067ffffffffffffffff82111561307b5761307a612fe5565b5b61308482612bea565b9050602081019050919050565b82818337600083830152505050565b60006130b36130ae84613060565b613045565b9050828152602081018484840111156130cf576130ce612fe0565b5b6130da848285613091565b509392505050565b600082601f8301126130f7576130f6612fdb565b5b81356131078482602086016130a0565b91505092915050565b6000806000806080858703121561312a57613129612a17565b5b600061313887828801612a6a565b945050602061314987828801612a6a565b935050604061315a87828801612c6d565b925050606085013567ffffffffffffffff81111561317b5761317a612a1c565b5b613187878288016130e2565b91505092959194509250565b600060208201905081810360008301526131ad8184612f64565b905092915050565b600080604083850312156131cc576131cb612a17565b5b60006131da85828601612a6a565b92505060206131eb85828601612a6a565b9150509250929050565b7f4e487b7100000000000000000000000000000000000000000000000000000000600052601160045260246000fd5b600061322f82612aac565b91507fffffffffffffffffffffffffffffffffffffffffffffffffffffffffffffffff821415613262576132616131f5565b5b600182019050919050565b600061327882612aac565b915061328383612aac565b925082821015613296576132956131f5565b5b828203905092915050565b6000815190506132b081612c56565b92915050565b6000602082840312156132cc576132cb612a17565b5b60006132da848285016132a1565b91505092915050565b7f4e487b7100000000000000000000000000000000000000000000000000000000600052602260045260246000fd5b6000600282049050600182168061332a57607f821691505b6020821081141561333e5761333d6132e3565b5b50919050565b7f4552433732313a20617070726f76616c20746f2063757272656e74206f776e6560008201527f7200000000000000000000000000000000000000000000000000000000000000602082015250565b60006133a0602183612ba6565b91506133ab82613344565b604082019050919050565b600060208201905081810360008301526133cf81613393565b9050919050565b7f4552433732313a20617070726f76652063616c6c6572206973206e6f7420746f60008201527f6b656e206f776e6572206e6f7220617070726f76656420666f7220616c6c0000602082015250565b6000613432603e83612ba6565b915061343d826133d6565b604082019050919050565b6000602082019050818103600083015261346181613425565b9050919050565b7f4552433732313a2063616c6c6572206973206e6f7420746f6b656e206f776e6560008201527f72206e6f7220617070726f766564000000000000000000000000000000000000602082015250565b60006134c4602e83612ba6565b91506134cf82613468565b604082019050919050565b600060208201905081810360008301526134f3816134b7565b9050919050565b7f4e487b7100000000000000000000000000000000000000000000000000000000600052601260045260246000fd5b600061353482612aac565b915061353f83612aac565b92508261354f5761354e6134fa565b5b828204905092915050565b600061356582612aac565b915061357083612aac565b9250827fffffffffffffffffffffffffffffffffffffffffffffffffffffffffffffffff038211156135a5576135a46131f5565b5b828201905092915050565b6000819050919050565b60008160001b9050919050565b60006135e26135dd6135d8846135b0565b6135ba565b612de6565b9050919050565b6135f2816135c7565b82525050565b600060208201905061360d60008301846135e9565b92915050565b60008151905061362281612a53565b92915050565b60006020828403121561363e5761363d612a17565b5b600061364c84828501613613565b91505092915050565b6000819050919050565b61367061366b82612de6565b613655565b82525050565b6000819050919050565b61369161368c82612aac565b613676565b82525050565b60006136a3828561365f565b6020820191506136b38284613680565b6020820191508190509392505050565b600067ffffffffffffffff8211156136de576136dd612fe5565b5b602082029050602081019050919050565b600080fd5b6000613707613702846136c3565b613045565b9050808382526020820190506020840283018581111561372a576137296136ef565b5b835b81811015613753578061373f88826132a1565b84526020840193505060208101905061372c565b5050509392505050565b600082601f83011261377257613771612fdb565b5b81516137828482602086016136f4565b91505092915050565b6000602082840312156137a1576137a0612a17565b5b600082015167ffffffffffffffff8111156137bf576137be612a1c565b5b6137cb8482850161375d565b91505092915050565b7f4552433732313a20696e76616c696420746f6b656e2049440000000000000000600082015250565b600061380a601883612ba6565b9150613815826137d4565b602082019050919050565b60006020820190508181036000830152613839816137fd565b9050919050565b7f4552433732313a2061646472657373207a65726f206973206e6f74206120766160008201527f6c6964206f776e65720000000000000000000000000000000000000000000000602082015250565b600061389c602983612ba6565b91506138a782613840565b604082019050919050565b600060208201905081810360008301526138cb8161388f565b9050919050565b60006040820190506138e76000830185612e85565b6138f46020830184612ab6565b9392505050565b600061390e61390984613060565b613045565b90508281526020810184848401111561392a57613929612fe0565b5b613935848285612bb7565b509392505050565b600082601f83011261395257613951612fdb565b5b81516139628482602086016138fb565b91505092915050565b60006020828403121561398157613980612a17565b5b600082015167ffffffffffffffff81111561399f5761399e612a1c565b5b6139ab8482850161393d565b91505092915050565b7f45524337323155524953746f726167653a2055524920736574206f66206e6f6e60008201527f6578697374656e7420746f6b656e000000000000000000000000000000000000602082015250565b6000613a10602e83612ba6565b9150613a1b826139b4565b604082019050919050565b60006020820190508181036000830152613a3f81613a03565b9050919050565b7f4552433732313a207472616e736665722066726f6d20696e636f72726563742060008201527f6f776e6572000000000000000000000000000000000000000000000000000000602082015250565b6000613aa2602583612ba6565b9150613aad82613a46565b604082019050919050565b60006020820190508181036000830152613ad181613a95565b9050919050565b7f4552433732313a207472616e7366657220746f20746865207a65726f2061646460008201527f7265737300000000000000000000000000000000000000000000000000000000602082015250565b6000613b34602483612ba6565b9150613b3f82613ad8565b604082019050919050565b60006020820190508181036000830152613b6381613b27565b9050919050565b7f4552433732313a20617070726f766520746f2063616c6c657200000000000000600082015250565b6000613ba0601983612ba6565b9150613bab82613b6a565b602082019050919050565b60006020820190508181036000830152613bcf81613b93565b9050919050565b7f4552433732313a207472616e7366657220746f206e6f6e20455243373231526560008201527f63656976657220696d706c656d656e7465720000000000000000000000000000602082015250565b6000613c32603283612ba6565b9150613c3d82613bd6565b604082019050919050565b60006020820190508181036000830152613c6181613c25565b9050919050565b600081905092915050565b6000613c7e82612b9b565b613c888185613c68565b9350613c98818560208601612bb7565b80840191505092915050565b6000613cb08285613c73565b9150613cbc8284613c73565b91508190509392505050565b6000608082019050613cdd6000830187612caf565b613cea6020830186612caf565b613cf76040830185612ab6565b8181036060830152613d098184612f64565b905095945050505050565b600081519050613d2381612b0c565b92915050565b600060208284031215613d3f57613d3e612a17565b5b6000613d4d84828501613d14565b91505092915050565b7f4552433732313a206d696e7420746f20746865207a65726f2061646472657373600082015250565b6000613d8c602083612ba6565b9150613d9782613d56565b602082019050919050565b60006020820190508181036000830152613dbb81613d7f565b9050919050565b7f4552433732313a20746f6b656e20616c7265616479206d696e74656400000000600082015250565b6000613df8601c83612ba6565b9150613e0382613dc2565b602082019050919050565b60006020820190508181036000830152613e2781613deb565b9050919050565b6000613e3982612aac565b9150613e4483612aac565b925082613e5457613e536134fa565b5b828206905092915050565b7f4e487b7100000000000000000000000000000000000000000000000000000000600052603260045260246000fdfe697066733a2f2f516d52327a48634e68624d397073375651446f6135644865485a6e587a66595947436d61346e766665364a365637a2646970667358221220240804bf87fafac1a9997bd9502c4b84d66319ccc1b2df0ddec6d5f18e263bf164736f6c63430008090033",
  "linkReferences": {},
  "deployedLinkReferences": {}
}