{
  "_format": "hh-sol-artifact-1",
  "contractName": "DynamicNFT",
  "sourceName": "contracts/DynamicNFT.sol",
  "abi": [
    {
      "inputs": [
        {
          "internalType": "string",
          "name": "tokenName",
          "type": "string"
        },
        {
          "internalType": "string",
          "name": "symbol",
          "type": "string"
        },
        {
          "internalType": "bytes32",
          "name": "_tellorID",
          "type": "bytes32"
        },
        {
          "internalType": "address payable",
          "name": "_tellorAddress",
          "type": "address"
        }
      ],
      "stateMutability": "nonpayable",
      "type": "constructor"
    },
    {
      "anonymous": false,
      "inputs": [
        {
          "indexed": true,
          "internalType": "address",
          "name": "owner",
          "type": "address"
        },
        {
          "indexed": true,
          "internalType": "address",
          "name": "approved",
          "type": "address"
        },
        {
          "indexed": true,
          "internalType": "uint256",
          "name": "tokenId",
          "type": "uint256"
        }
      ],
      "name": "Approval",
      "type": "event"
    },
    {
      "anonymous": false,
      "inputs": [
        {
          "indexed": true,
          "internalType": "address",
          "name": "owner",
          "type": "address"
        },
        {
          "indexed": true,
          "internalType": "address",
          "name": "operator",
          "type": "address"
        },
        {
          "indexed": false,
          "internalType": "bool",
          "name": "approved",
          "type": "bool"
        }
      ],
      "name": "ApprovalForAll",
      "type": "event"
    },
    {
      "anonymous": false,
      "inputs": [
        {
          "indexed": true,
          "internalType": "address",
          "name": "from",
          "type": "address"
        },
        {
          "indexed": true,
          "internalType": "address",
          "name": "to",
          "type": "address"
        },
        {
          "indexed": true,
          "internalType": "uint256",
          "name": "tokenId",
          "type": "uint256"
        }
      ],
      "name": "Transfer",
      "type": "event"
    },
    {
      "inputs": [
        {
          "internalType": "address",
          "name": "to",
          "type": "address"
        },
        {
          "internalType": "uint256",
          "name": "tokenId",
          "type": "uint256"
        }
      ],
      "name": "approve",
      "outputs": [],
      "stateMutability": "nonpayable",
      "type": "function"
    },
    {
      "inputs": [
        {
          "internalType": "address",
          "name": "owner",
          "type": "address"
        }
      ],
      "name": "balanceOf",
      "outputs": [
        {
          "internalType": "uint256",
          "name": "",
          "type": "uint256"
        }
      ],
      "stateMutability": "view",
      "type": "function"
    },
    {
      "inputs": [
        {
          "internalType": "uint256",
          "name": "tokenId",
          "type": "uint256"
        }
      ],
      "name": "getApproved",
      "outputs": [
        {
          "internalType": "address",
          "name": "",
          "type": "address"
        }
      ],
      "stateMutability": "view",
      "type": "function"
    },
    {
      "inputs": [
        {
          "internalType": "bytes32",
          "name": "_queryId",
          "type": "bytes32"
        }
      ],
      "name": "getCurrentValue",
      "outputs": [
        {
          "internalType": "bool",
          "name": "_ifRetrieve",
          "type": "bool"
        },
        {
          "internalType": "bytes",
          "name": "_value",
          "type": "bytes"
        },
        {
          "internalType": "uint256",
          "name": "_timestampRetrieved",
          "type": "uint256"
        }
      ],
      "stateMutability": "view",
      "type": "function"
    },
    {
      "inputs": [
        {
          "internalType": "bytes32",
          "name": "_queryId",
          "type": "bytes32"
        },
        {
          "internalType": "uint256",
          "name": "_timestamp",
          "type": "uint256"
        }
      ],
      "name": "getDataBefore",
      "outputs": [
        {
          "internalType": "bool",
          "name": "_ifRetrieve",
          "type": "bool"
        },
        {
          "internalType": "bytes",
          "name": "_value",
          "type": "bytes"
        },
        {
          "internalType": "uint256",
          "name": "_timestampRetrieved",
          "type": "uint256"
        }
      ],
      "stateMutability": "view",
      "type": "function"
    },
    {
      "inputs": [
        {
          "internalType": "bytes32",
          "name": "_queryId",
          "type": "bytes32"
        },
        {
          "internalType": "uint256",
          "name": "_timestamp",
          "type": "uint256"
        }
      ],
      "name": "getIndexForDataBefore",
      "outputs": [
        {
          "internalType": "bool",
          "name": "_found",
          "type": "bool"
        },
        {
          "internalType": "uint256",
          "name": "_index",
          "type": "uint256"
        }
      ],
      "stateMutability": "view",
      "type": "function"
    },
    {
      "inputs": [
        {
          "internalType": "bytes32",
          "name": "_queryId",
          "type": "bytes32"
        }
      ],
      "name": "getNewValueCountbyQueryId",
      "outputs": [
        {
          "internalType": "uint256",
          "name": "",
          "type": "uint256"
        }
      ],
      "stateMutability": "view",
      "type": "function"
    },
    {
      "inputs": [
        {
          "internalType": "bytes32",
          "name": "_queryId",
          "type": "bytes32"
        },
        {
          "internalType": "uint256",
          "name": "_index",
          "type": "uint256"
        }
      ],
      "name": "getTimestampbyQueryIdandIndex",
      "outputs": [
        {
          "internalType": "uint256",
          "name": "",
          "type": "uint256"
        }
      ],
      "stateMutability": "view",
      "type": "function"
    },
    {
      "inputs": [
        {
          "internalType": "address",
          "name": "owner",
          "type": "address"
        },
        {
          "internalType": "address",
          "name": "operator",
          "type": "address"
        }
      ],
      "name": "isApprovedForAll",
      "outputs": [
        {
          "internalType": "bool",
          "name": "",
          "type": "bool"
        }
      ],
      "stateMutability": "view",
      "type": "function"
    },
    {
      "inputs": [
        {
          "internalType": "bytes32",
          "name": "_queryId",
          "type": "bytes32"
        },
        {
          "internalType": "uint256",
          "name": "_timestamp",
          "type": "uint256"
        }
      ],
      "name": "isInDispute",
      "outputs": [
        {
          "internalType": "bool",
          "name": "",
          "type": "bool"
        }
      ],
      "stateMutability": "view",
      "type": "function"
    },
    {
      "inputs": [
        {
          "internalType": "address",
          "name": "_owner",
          "type": "address"
        }
      ],
      "name": "mintToken",
      "outputs": [
        {
          "internalType": "uint256",
          "name": "_id",
          "type": "uint256"
        }
      ],
      "stateMutability": "nonpayable",
      "type": "function"
    },
    {
      "inputs": [],
      "name": "name",
      "outputs": [
        {
          "internalType": "string",
          "name": "",
          "type": "string"
        }
      ],
      "stateMutability": "view",
      "type": "function"
    },
    {
      "inputs": [
        {
          "internalType": "uint256",
          "name": "tokenId",
          "type": "uint256"
        }
      ],
      "name": "ownerOf",
      "outputs": [
        {
          "internalType": "address",
          "name": "",
          "type": "address"
        }
      ],
      "stateMutability": "view",
      "type": "function"
    },
    {
      "inputs": [
        {
          "internalType": "bytes32",
          "name": "_queryId",
          "type": "bytes32"
        },
        {
          "internalType": "uint256",
          "name": "_timestamp",
          "type": "uint256"
        }
      ],
      "name": "retrieveData",
      "outputs": [
        {
          "internalType": "bytes",
          "name": "",
          "type": "bytes"
        }
      ],
      "stateMutability": "view",
      "type": "function"
    },
    {
      "inputs": [
        {
          "internalType": "address",
          "name": "from",
          "type": "address"
        },
        {
          "internalType": "address",
          "name": "to",
          "type": "address"
        },
        {
          "internalType": "uint256",
          "name": "tokenId",
          "type": "uint256"
        }
      ],
      "name": "safeTransferFrom",
      "outputs": [],
      "stateMutability": "nonpayable",
      "type": "function"
    },
    {
      "inputs": [
        {
          "internalType": "address",
          "name": "from",
          "type": "address"
        },
        {
          "internalType": "address",
          "name": "to",
          "type": "address"
        },
        {
          "internalType": "uint256",
          "name": "tokenId",
          "type": "uint256"
        },
        {
          "internalType": "bytes",
          "name": "data",
          "type": "bytes"
        }
      ],
      "name": "safeTransferFrom",
      "outputs": [],
      "stateMutability": "nonpayable",
      "type": "function"
    },
    {
      "inputs": [
        {
          "internalType": "address",
          "name": "operator",
          "type": "address"
        },
        {
          "internalType": "bool",
          "name": "approved",
          "type": "bool"
        }
      ],
      "name": "setApprovalForAll",
      "outputs": [],
      "stateMutability": "nonpayable",
      "type": "function"
    },
    {
      "inputs": [
        {
          "internalType": "uint256",
          "name": "",
          "type": "uint256"
        }
      ],
      "name": "startPrices",
      "outputs": [
        {
          "internalType": "uint256",
          "name": "",
          "type": "uint256"
        }
      ],
      "stateMutability": "view",
      "type": "function"
    },
    {
      "inputs": [],
      "name": "supply",
      "outputs": [
        {
          "internalType": "uint256",
          "name": "",
          "type": "uint256"
        }
      ],
      "stateMutability": "view",
      "type": "function"
    },
    {
      "inputs": [
        {
          "internalType": "bytes4",
          "name": "interfaceId",
          "type": "bytes4"
        }
      ],
      "name": "supportsInterface",
      "outputs": [
        {
          "internalType": "bool",
          "name": "",
          "type": "bool"
        }
      ],
      "stateMutability": "view",
      "type": "function"
    },
    {
      "inputs": [],
      "name": "symbol",
      "outputs": [
        {
          "internalType": "string",
          "name": "",
          "type": "string"
        }
      ],
      "stateMutability": "view",
      "type": "function"
    },
    {
      "inputs": [],
      "name": "tellor",
      "outputs": [
        {
          "internalType": "contract ITellor",
          "name": "",
          "type": "address"
        }
      ],
      "stateMutability": "view",
      "type": "function"
    },
    {
      "inputs": [],
      "name": "tellorID",
      "outputs": [
        {
          "internalType": "bytes32",
          "name": "",
          "type": "bytes32"
        }
      ],
      "stateMutability": "view",
      "type": "function"
    },
    {
      "inputs": [
        {
          "internalType": "uint256",
          "name": "tokenId",
          "type": "uint256"
        }
      ],
      "name": "tokenURI",
      "outputs": [
        {
          "internalType": "string",
          "name": "",
          "type": "string"
        }
      ],
      "stateMutability": "view",
      "type": "function"
    },
    {
      "inputs": [
        {
          "internalType": "address",
          "name": "from",
          "type": "address"
        },
        {
          "internalType": "address",
          "name": "to",
          "type": "address"
        },
        {
          "internalType": "uint256",
          "name": "tokenId",
          "type": "uint256"
        }
      ],
      "name": "transferFrom",
      "outputs": [],
      "stateMutability": "nonpayable",
      "type": "function"
    },
    {
      "inputs": [
        {
          "internalType": "uint256",
          "name": "_id",
          "type": "uint256"
        }
      ],
      "name": "updateURI",
      "outputs": [],
      "stateMutability": "nonpayable",
      "type": "function"
    }
  ],
  "bytecode": "0x60806040523480156200001157600080fd5b50604051620042fb380380620042fb8339818101604052810190620000379190620003ae565b808484816000908051906020019062000052929190620000c1565b5080600190805190602001906200006b929190620000c1565b50505080600760006101000a81548173ffffffffffffffffffffffffffffffffffffffff021916908373ffffffffffffffffffffffffffffffffffffffff160217905550508160088190555050505050620004c3565b828054620000cf906200048d565b90600052602060002090601f016020900481019282620000f357600085556200013f565b82601f106200010e57805160ff19168380011785556200013f565b828001600101855582156200013f579182015b828111156200013e57825182559160200191906001019062000121565b5b5090506200014e919062000152565b5090565b5b808211156200016d57600081600090555060010162000153565b5090565b6000604051905090565b600080fd5b600080fd5b600080fd5b600080fd5b6000601f19601f8301169050919050565b7f4e487b7100000000000000000000000000000000000000000000000000000000600052604160045260246000fd5b620001da826200018f565b810181811067ffffffffffffffff82111715620001fc57620001fb620001a0565b5b80604052505050565b60006200021162000171565b90506200021f8282620001cf565b919050565b600067ffffffffffffffff821115620002425762000241620001a0565b5b6200024d826200018f565b9050602081019050919050565b60005b838110156200027a5780820151818401526020810190506200025d565b838111156200028a576000848401525b50505050565b6000620002a7620002a18462000224565b62000205565b905082815260208101848484011115620002c657620002c56200018a565b5b620002d38482856200025a565b509392505050565b600082601f830112620002f357620002f262000185565b5b81516200030584826020860162000290565b91505092915050565b6000819050919050565b62000323816200030e565b81146200032f57600080fd5b50565b600081519050620003438162000318565b92915050565b600073ffffffffffffffffffffffffffffffffffffffff82169050919050565b6000620003768262000349565b9050919050565b620003888162000369565b81146200039457600080fd5b50565b600081519050620003a8816200037d565b92915050565b60008060008060808587031215620003cb57620003ca6200017b565b5b600085015167ffffffffffffffff811115620003ec57620003eb62000180565b5b620003fa87828801620002db565b945050602085015167ffffffffffffffff8111156200041e576200041d62000180565b5b6200042c87828801620002db565b93505060406200043f8782880162000332565b9250506060620004528782880162000397565b91505092959194509250565b7f4e487b7100000000000000000000000000000000000000000000000000000000600052602260045260246000fd5b60006002820490506001821680620004a657607f821691505b60208210811415620004bd57620004bc6200045e565b5b50919050565b613e2880620004d36000396000f3fe608060405234801561001057600080fd5b506004361061018e5760003560e01c8063641348ac116100de578063a792765f11610097578063c5958af911610071578063c5958af9146104e6578063c87b56dd14610516578063ce5e11bf14610546578063e985e9c5146105765761018e565b8063a792765f14610466578063adf1639d14610498578063b88d4fde146104ca5761018e565b8063641348ac1461037e57806370a082311461039c57806377b03e0d146103cc57806388a5dbd9146103fc57806395d89b411461042c578063a22cb4651461044a5761018e565b80631959ad5b1161014b5780634261e65d116101255780634261e65d146102e657806342842e0e1461030257806344e87f911461031e5780636352211e1461034e5761018e565b80631959ad5b1461027b57806323b872dd1461029957806329449085146102b55761018e565b806301173a741461019357806301ffc9a7146101c3578063047fc9aa146101f357806306fdde0314610211578063081812fc1461022f578063095ea7b31461025f575b600080fd5b6101ad60048036038101906101a891906129ae565b6105a6565b6040516101ba91906129f4565b60405180910390f35b6101dd60048036038101906101d89190612a67565b610632565b6040516101ea9190612aaf565b60405180910390f35b6101fb610644565b60405161020891906129f4565b60405180910390f35b61021961064a565b6040516102269190612b63565b60405180910390f35b61024960048036038101906102449190612bb1565b6106dc565b6040516102569190612bed565b60405180910390f35b61027960048036038101906102749190612c08565b610722565b005b61028361083a565b6040516102909190612ca7565b60405180910390f35b6102b360048036038101906102ae9190612cc2565b610860565b005b6102cf60048036038101906102ca9190612d4b565b6108c0565b6040516102dd929190612d8b565b60405180910390f35b61030060048036038101906102fb9190612bb1565b610a3b565b005b61031c60048036038101906103179190612cc2565b610aeb565b005b61033860048036038101906103339190612d4b565b610b0b565b6040516103459190612aaf565b60405180910390f35b61036860048036038101906103639190612bb1565b610e14565b6040516103759190612bed565b60405180910390f35b610386610ec6565b6040516103939190612dc3565b60405180910390f35b6103b660048036038101906103b191906129ae565b610ecc565b6040516103c391906129f4565b60405180910390f35b6103e660048036038101906103e19190612dde565b610f84565b6040516103f391906129f4565b60405180910390f35b61041660048036038101906104119190612bb1565b6111c1565b60405161042391906129f4565b60405180910390f35b6104346111d9565b6040516104419190612b63565b60405180910390f35b610464600480360381019061045f9190612e37565b61126b565b005b610480600480360381019061047b9190612d4b565b611281565b60405161048f93929190612ecc565b60405180910390f35b6104b260048036038101906104ad9190612dde565b611333565b6040516104c193929190612ecc565b60405180910390f35b6104e460048036038101906104df919061303f565b6113ec565b005b61050060048036038101906104fb9190612d4b565b61144e565b60405161050d91906130c2565b60405180910390f35b610530600480360381019061052b9190612bb1565b61169a565b60405161053d9190612b63565b60405180910390f35b610560600480360381019061055b9190612d4b565b6116ac565b60405161056d91906129f4565b60405180910390f35b610590600480360381019061058b91906130e4565b6118ee565b60405161059d9190612aaf565b60405180910390f35b6000600960008154809291906105bb90613153565b919050555060095490506000806105e1600854610708426105dc919061319c565b611281565b5091509150816105f057600080fd5b60008180602001905181019061060691906131e5565b905080600a60008681526020019081526020016000208190555061062a8585611982565b505050919050565b600061063d826119a0565b9050919050565b60095481565b60606000805461065990613241565b80601f016020809104026020016040519081016040528092919081815260200182805461068590613241565b80156106d25780601f106106a7576101008083540402835291602001916106d2565b820191906000526020600020905b8154815290600101906020018083116106b557829003601f168201915b5050505050905090565b60006106e782611a82565b6004600083815260200190815260200160002060009054906101000a900473ffffffffffffffffffffffffffffffffffffffff169050919050565b600061072d82610e14565b90508073ffffffffffffffffffffffffffffffffffffffff168373ffffffffffffffffffffffffffffffffffffffff16141561079e576040517f08c379a0000000000000000000000000000000000000000000000000000000008152600401610795906132e5565b60405180910390fd5b8073ffffffffffffffffffffffffffffffffffffffff166107bd611acd565b73ffffffffffffffffffffffffffffffffffffffff1614806107ec57506107eb816107e6611acd565b6118ee565b5b61082b576040517f08c379a000000000000000000000000000000000000000000000000000000000815260040161082290613377565b60405180910390fd5b6108358383611ad5565b505050565b600760009054906101000a900473ffffffffffffffffffffffffffffffffffffffff1681565b61087161086b611acd565b82611b8e565b6108b0576040517f08c379a00000000000000000000000000000000000000000000000000000000081526004016108a790613409565b60405180910390fd5b6108bb838383611c23565b505050565b60008060006108ce85610f84565b90506000811115610a2b576000806000905060006001846108ef919061319c565b905060006108fd89846116ac565b905087811061091757600080965096505050505050610a34565b61092189836116ac565b90508781101561093c57600182965096505050505050610a34565b5b600115610a265782600160028585610955919061319c565b61095f9190613458565b6109699190613489565b6109739190613489565b935061097f89856116ac565b9050878110156109d15760006109a18a60018761099c9190613489565b6116ac565b90508881106109bc5760018597509750505050505050610a34565b6001856109c99190613489565b935050610a21565b60006109e98a6001876109e4919061319c565b6116ac565b905088811015610a105760018086610a01919061319c565b97509750505050505050610a34565b600185610a1d919061319c565b9250505b61093d565b505050505b60008092509250505b9250929050565b600080610a5760085461070842610a52919061319c565b611281565b509150915081610a68575050610ae8565b600081806020019051810190610a7e91906131e5565b9050600a6000858152602001908152602001600020548110610ac157610abc84604051806060016040528060358152602001613dbe60359139611e8a565b610ae4565b610ae384604051806060016040528060358152602001613dbe60359139611e8a565b5b5050505b50565b610b06838383604051806020016040528060008152506113ec565b505050565b6000807318431fd88adf138e8b979a7246eb58ea7126ea1673ffffffffffffffffffffffffffffffffffffffff16600760009054906101000a900473ffffffffffffffffffffffffffffffffffffffff1673ffffffffffffffffffffffffffffffffffffffff161480610bdf575073e8218cacb0a5421bc6409e498d9f8cc8869945ea73ffffffffffffffffffffffffffffffffffffffff16600760009054906101000a900473ffffffffffffffffffffffffffffffffffffffff1673ffffffffffffffffffffffffffffffffffffffff16145b15610cae5760007388df592f8eb5d7bd38bfef7deb0fbc02cf3778a090508073ffffffffffffffffffffffffffffffffffffffff1663699f200f7fefa19baa864049f50491093580c5433e97e8d5e41f8db1a61108b4fa44cacd936040518263ffffffff1660e01b8152600401610c569190613527565b60206040518083038186803b158015610c6e57600080fd5b505afa158015610c82573d6000803e3d6000fd5b505050506040513d601f19601f82011682018060405250810190610ca69190613557565b915050610d51565b600760009054906101000a900473ffffffffffffffffffffffffffffffffffffffff1673ffffffffffffffffffffffffffffffffffffffff16635aa6e6756040518163ffffffff1660e01b815260040160206040518083038186803b158015610d1657600080fd5b505afa158015610d2a573d6000803e3d6000fd5b505050506040513d601f19601f82011682018060405250810190610d4e9190613557565b90505b60008173ffffffffffffffffffffffffffffffffffffffff1663248638e58686604051602001610d829291906135c6565b604051602081830303815290604052805190602001206040518263ffffffff1660e01b8152600401610db49190612dc3565b60006040518083038186803b158015610dcc57600080fd5b505afa158015610de0573d6000803e3d6000fd5b505050506040513d6000823e3d601f19601f82011682018060405250810190610e0991906136ba565b511191505092915050565b6000806002600084815260200190815260200160002060009054906101000a900473ffffffffffffffffffffffffffffffffffffffff169050600073ffffffffffffffffffffffffffffffffffffffff168173ffffffffffffffffffffffffffffffffffffffff161415610ebd576040517f08c379a0000000000000000000000000000000000000000000000000000000008152600401610eb49061374f565b60405180910390fd5b80915050919050565b60085481565b60008073ffffffffffffffffffffffffffffffffffffffff168273ffffffffffffffffffffffffffffffffffffffff161415610f3d576040517f08c379a0000000000000000000000000000000000000000000000000000000008152600401610f34906137e1565b60405180910390fd5b600360008373ffffffffffffffffffffffffffffffffffffffff1673ffffffffffffffffffffffffffffffffffffffff168152602001908152602001600020549050919050565b60007318431fd88adf138e8b979a7246eb58ea7126ea1673ffffffffffffffffffffffffffffffffffffffff16600760009054906101000a900473ffffffffffffffffffffffffffffffffffffffff1673ffffffffffffffffffffffffffffffffffffffff161480611057575073e8218cacb0a5421bc6409e498d9f8cc8869945ea73ffffffffffffffffffffffffffffffffffffffff16600760009054906101000a900473ffffffffffffffffffffffffffffffffffffffff1673ffffffffffffffffffffffffffffffffffffffff16145b1561110e57600760009054906101000a900473ffffffffffffffffffffffffffffffffffffffff1673ffffffffffffffffffffffffffffffffffffffff166335e72432836040518263ffffffff1660e01b81526004016110b79190612dc3565b60206040518083038186803b1580156110cf57600080fd5b505afa1580156110e3573d6000803e3d6000fd5b505050506040513d601f19601f8201168201806040525081019061110791906131e5565b90506111bc565b600760009054906101000a900473ffffffffffffffffffffffffffffffffffffffff1673ffffffffffffffffffffffffffffffffffffffff166377b03e0d836040518263ffffffff1660e01b81526004016111699190612dc3565b60206040518083038186803b15801561118157600080fd5b505afa158015611195573d6000803e3d6000fd5b505050506040513d601f19601f820116820180604052508101906111b991906131e5565b90505b919050565b600a6020528060005260406000206000915090505481565b6060600180546111e890613241565b80601f016020809104026020016040519081016040528092919081815260200182805461121490613241565b80156112615780601f1061123657610100808354040283529160200191611261565b820191906000526020600020905b81548152906001019060200180831161124457829003601f168201915b5050505050905090565b61127d611276611acd565b8383611efe565b5050565b60006060600080600061129487876108c0565b91509150816112be576000604051806020016040528060008152506000945094509450505061132c565b60006112ca88836116ac565b90506112d6888261144e565b9450604051806020016040528060008152508051906020012085805190602001201461130e576001858295509550955050505061132c565b60006040518060200160405280600081525060009550955095505050505b9250925092565b6000606060008061134385610f84565b9050600081141561136e576000604051806020016040528060008152506000935093509350506113e5565b600061138686600184611381919061319c565b6116ac565b9050611392868261144e565b935060405180602001604052806000815250805190602001208480519060200120146113c9576001848294509450945050506113e5565b6000604051806020016040528060008152508294509450945050505b9193909250565b6113fd6113f7611acd565b83611b8e565b61143c576040517f08c379a000000000000000000000000000000000000000000000000000000000815260040161143390613409565b60405180910390fd5b6114488484848461206b565b50505050565b60607318431fd88adf138e8b979a7246eb58ea7126ea1673ffffffffffffffffffffffffffffffffffffffff16600760009054906101000a900473ffffffffffffffffffffffffffffffffffffffff1673ffffffffffffffffffffffffffffffffffffffff161480611521575073e8218cacb0a5421bc6409e498d9f8cc8869945ea73ffffffffffffffffffffffffffffffffffffffff16600760009054906101000a900473ffffffffffffffffffffffffffffffffffffffff1673ffffffffffffffffffffffffffffffffffffffff16145b156115df57600760009054906101000a900473ffffffffffffffffffffffffffffffffffffffff1673ffffffffffffffffffffffffffffffffffffffff16630b2d2b0d84846040518363ffffffff1660e01b8152600401611583929190613801565b60006040518083038186803b15801561159b57600080fd5b505afa1580156115af573d6000803e3d6000fd5b505050506040513d6000823e3d601f19601f820116820180604052508101906115d8919061389a565b9050611694565b600760009054906101000a900473ffffffffffffffffffffffffffffffffffffffff1673ffffffffffffffffffffffffffffffffffffffff1663c5958af984846040518363ffffffff1660e01b815260040161163c929190613801565b60006040518083038186803b15801561165457600080fd5b505afa158015611668573d6000803e3d6000fd5b505050506040513d6000823e3d601f19601f82011682018060405250810190611691919061389a565b90505b92915050565b60606116a5826120c7565b9050919050565b60007318431fd88adf138e8b979a7246eb58ea7126ea1673ffffffffffffffffffffffffffffffffffffffff16600760009054906101000a900473ffffffffffffffffffffffffffffffffffffffff1673ffffffffffffffffffffffffffffffffffffffff16148061177f575073e8218cacb0a5421bc6409e498d9f8cc8869945ea73ffffffffffffffffffffffffffffffffffffffff16600760009054906101000a900473ffffffffffffffffffffffffffffffffffffffff1673ffffffffffffffffffffffffffffffffffffffff16145b1561183857600760009054906101000a900473ffffffffffffffffffffffffffffffffffffffff1673ffffffffffffffffffffffffffffffffffffffff16637c37b8b484846040518363ffffffff1660e01b81526004016117e1929190613801565b60206040518083038186803b1580156117f957600080fd5b505afa15801561180d573d6000803e3d6000fd5b505050506040513d601f19601f8201168201806040525081019061183191906131e5565b90506118e8565b600760009054906101000a900473ffffffffffffffffffffffffffffffffffffffff1673ffffffffffffffffffffffffffffffffffffffff1663ce5e11bf84846040518363ffffffff1660e01b8152600401611895929190613801565b60206040518083038186803b1580156118ad57600080fd5b505afa1580156118c1573d6000803e3d6000fd5b505050506040513d601f19601f820116820180604052508101906118e591906131e5565b90505b92915050565b6000600560008473ffffffffffffffffffffffffffffffffffffffff1673ffffffffffffffffffffffffffffffffffffffff16815260200190815260200160002060008373ffffffffffffffffffffffffffffffffffffffff1673ffffffffffffffffffffffffffffffffffffffff16815260200190815260200160002060009054906101000a900460ff16905092915050565b61199c8282604051806020016040528060008152506121da565b5050565b60007f80ac58cd000000000000000000000000000000000000000000000000000000007bffffffffffffffffffffffffffffffffffffffffffffffffffffffff1916827bffffffffffffffffffffffffffffffffffffffffffffffffffffffff19161480611a6b57507f5b5e139f000000000000000000000000000000000000000000000000000000007bffffffffffffffffffffffffffffffffffffffffffffffffffffffff1916827bffffffffffffffffffffffffffffffffffffffffffffffffffffffff1916145b80611a7b5750611a7a82612235565b5b9050919050565b611a8b8161229f565b611aca576040517f08c379a0000000000000000000000000000000000000000000000000000000008152600401611ac19061374f565b60405180910390fd5b50565b600033905090565b816004600083815260200190815260200160002060006101000a81548173ffffffffffffffffffffffffffffffffffffffff021916908373ffffffffffffffffffffffffffffffffffffffff160217905550808273ffffffffffffffffffffffffffffffffffffffff16611b4883610e14565b73ffffffffffffffffffffffffffffffffffffffff167f8c5be1e5ebec7d5bd14f71427d1e84f3dd0314c0f7b2291e5b200ac8c7c3b92560405160405180910390a45050565b600080611b9a83610e14565b90508073ffffffffffffffffffffffffffffffffffffffff168473ffffffffffffffffffffffffffffffffffffffff161480611bdc5750611bdb81856118ee565b5b80611c1a57508373ffffffffffffffffffffffffffffffffffffffff16611c02846106dc565b73ffffffffffffffffffffffffffffffffffffffff16145b91505092915050565b8273ffffffffffffffffffffffffffffffffffffffff16611c4382610e14565b73ffffffffffffffffffffffffffffffffffffffff1614611c99576040517f08c379a0000000000000000000000000000000000000000000000000000000008152600401611c9090613955565b60405180910390fd5b600073ffffffffffffffffffffffffffffffffffffffff168273ffffffffffffffffffffffffffffffffffffffff161415611d09576040517f08c379a0000000000000000000000000000000000000000000000000000000008152600401611d00906139e7565b60405180910390fd5b611d1483838361230b565b611d1f600082611ad5565b6001600360008573ffffffffffffffffffffffffffffffffffffffff1673ffffffffffffffffffffffffffffffffffffffff1681526020019081526020016000206000828254611d6f919061319c565b925050819055506001600360008473ffffffffffffffffffffffffffffffffffffffff1673ffffffffffffffffffffffffffffffffffffffff1681526020019081526020016000206000828254611dc69190613489565b92505081905550816002600083815260200190815260200160002060006101000a81548173ffffffffffffffffffffffffffffffffffffffff021916908373ffffffffffffffffffffffffffffffffffffffff160217905550808273ffffffffffffffffffffffffffffffffffffffff168473ffffffffffffffffffffffffffffffffffffffff167fddf252ad1be2c89b69c2b068fc378daa952ba7f163c4a11628f55a4df523b3ef60405160405180910390a4611e8583838361231b565b505050565b611e938261229f565b611ed2576040517f08c379a0000000000000000000000000000000000000000000000000000000008152600401611ec990613a79565b60405180910390fd5b80600660008481526020019081526020016000209080519060200190611ef9929190612899565b505050565b8173ffffffffffffffffffffffffffffffffffffffff168373ffffffffffffffffffffffffffffffffffffffff161415611f6d576040517f08c379a0000000000000000000000000000000000000000000000000000000008152600401611f6490613ae5565b60405180910390fd5b80600560008573ffffffffffffffffffffffffffffffffffffffff1673ffffffffffffffffffffffffffffffffffffffff16815260200190815260200160002060008473ffffffffffffffffffffffffffffffffffffffff1673ffffffffffffffffffffffffffffffffffffffff16815260200190815260200160002060006101000a81548160ff0219169083151502179055508173ffffffffffffffffffffffffffffffffffffffff168373ffffffffffffffffffffffffffffffffffffffff167f17307eab39ab6107e8899845ad3d59bd9653f200f220920489ca2b5937696c318360405161205e9190612aaf565b60405180910390a3505050565b612076848484611c23565b61208284848484612320565b6120c1576040517f08c379a00000000000000000000000000000000000000000000000000000000081526004016120b890613b77565b60405180910390fd5b50505050565b60606120d282611a82565b60006006600084815260200190815260200160002080546120f290613241565b80601f016020809104026020016040519081016040528092919081815260200182805461211e90613241565b801561216b5780601f106121405761010080835404028352916020019161216b565b820191906000526020600020905b81548152906001019060200180831161214e57829003601f168201915b50505050509050600061217c6124b7565b90506000815114156121925781925050506121d5565b6000825111156121c75780826040516020016121af929190613bd3565b604051602081830303815290604052925050506121d5565b6121d0846124ce565b925050505b919050565b6121e48383612536565b6121f16000848484612320565b612230576040517f08c379a000000000000000000000000000000000000000000000000000000000815260040161222790613b77565b60405180910390fd5b505050565b60007f01ffc9a7000000000000000000000000000000000000000000000000000000007bffffffffffffffffffffffffffffffffffffffffffffffffffffffff1916827bffffffffffffffffffffffffffffffffffffffffffffffffffffffff1916149050919050565b60008073ffffffffffffffffffffffffffffffffffffffff166002600084815260200190815260200160002060009054906101000a900473ffffffffffffffffffffffffffffffffffffffff1673ffffffffffffffffffffffffffffffffffffffff1614159050919050565b612316838383612710565b505050565b505050565b60006123418473ffffffffffffffffffffffffffffffffffffffff16612715565b156124aa578373ffffffffffffffffffffffffffffffffffffffff1663150b7a0261236a611acd565b8786866040518563ffffffff1660e01b815260040161238c9493929190613bf7565b602060405180830381600087803b1580156123a657600080fd5b505af19250505080156123d757506040513d601f19601f820116820180604052508101906123d49190613c58565b60015b61245a573d8060008114612407576040519150601f19603f3d011682016040523d82523d6000602084013e61240c565b606091505b50600081511415612452576040517f08c379a000000000000000000000000000000000000000000000000000000000815260040161244990613b77565b60405180910390fd5b805181602001fd5b63150b7a0260e01b7bffffffffffffffffffffffffffffffffffffffffffffffffffffffff1916817bffffffffffffffffffffffffffffffffffffffffffffffffffffffff1916149150506124af565b600190505b949350505050565b606060405180602001604052806000815250905090565b60606124d982611a82565b60006124e36124b7565b90506000815111612503576040518060200160405280600081525061252e565b8061250d84612738565b60405160200161251e929190613bd3565b6040516020818303038152906040525b915050919050565b600073ffffffffffffffffffffffffffffffffffffffff168273ffffffffffffffffffffffffffffffffffffffff1614156125a6576040517f08c379a000000000000000000000000000000000000000000000000000000000815260040161259d90613cd1565b60405180910390fd5b6125af8161229f565b156125ef576040517f08c379a00000000000000000000000000000000000000000000000000000000081526004016125e690613d3d565b60405180910390fd5b6125fb6000838361230b565b6001600360008473ffffffffffffffffffffffffffffffffffffffff1673ffffffffffffffffffffffffffffffffffffffff168152602001908152602001600020600082825461264b9190613489565b92505081905550816002600083815260200190815260200160002060006101000a81548173ffffffffffffffffffffffffffffffffffffffff021916908373ffffffffffffffffffffffffffffffffffffffff160217905550808273ffffffffffffffffffffffffffffffffffffffff16600073ffffffffffffffffffffffffffffffffffffffff167fddf252ad1be2c89b69c2b068fc378daa952ba7f163c4a11628f55a4df523b3ef60405160405180910390a461270c6000838361231b565b5050565b505050565b6000808273ffffffffffffffffffffffffffffffffffffffff163b119050919050565b60606000821415612780576040518060400160405280600181526020017f30000000000000000000000000000000000000000000000000000000000000008152509050612894565b600082905060005b600082146127b257808061279b90613153565b915050600a826127ab9190613458565b9150612788565b60008167ffffffffffffffff8111156127ce576127cd612f14565b5b6040519080825280601f01601f1916602001820160405280156128005781602001600182028036833780820191505090505b5090505b6000851461288d57600182612819919061319c565b9150600a856128289190613d5d565b60306128349190613489565b60f81b81838151811061284a57612849613d8e565b5b60200101907effffffffffffffffffffffffffffffffffffffffffffffffffffffffffffff1916908160001a905350600a856128869190613458565b9450612804565b8093505050505b919050565b8280546128a590613241565b90600052602060002090601f0160209004810192826128c7576000855561290e565b82601f106128e057805160ff191683800117855561290e565b8280016001018555821561290e579182015b8281111561290d5782518255916020019190600101906128f2565b5b50905061291b919061291f565b5090565b5b80821115612938576000816000905550600101612920565b5090565b6000604051905090565b600080fd5b600080fd5b600073ffffffffffffffffffffffffffffffffffffffff82169050919050565b600061297b82612950565b9050919050565b61298b81612970565b811461299657600080fd5b50565b6000813590506129a881612982565b92915050565b6000602082840312156129c4576129c3612946565b5b60006129d284828501612999565b91505092915050565b6000819050919050565b6129ee816129db565b82525050565b6000602082019050612a0960008301846129e5565b92915050565b60007fffffffff0000000000000000000000000000000000000000000000000000000082169050919050565b612a4481612a0f565b8114612a4f57600080fd5b50565b600081359050612a6181612a3b565b92915050565b600060208284031215612a7d57612a7c612946565b5b6000612a8b84828501612a52565b91505092915050565b60008115159050919050565b612aa981612a94565b82525050565b6000602082019050612ac46000830184612aa0565b92915050565b600081519050919050565b600082825260208201905092915050565b60005b83811015612b04578082015181840152602081019050612ae9565b83811115612b13576000848401525b50505050565b6000601f19601f8301169050919050565b6000612b3582612aca565b612b3f8185612ad5565b9350612b4f818560208601612ae6565b612b5881612b19565b840191505092915050565b60006020820190508181036000830152612b7d8184612b2a565b905092915050565b612b8e816129db565b8114612b9957600080fd5b50565b600081359050612bab81612b85565b92915050565b600060208284031215612bc757612bc6612946565b5b6000612bd584828501612b9c565b91505092915050565b612be781612970565b82525050565b6000602082019050612c026000830184612bde565b92915050565b60008060408385031215612c1f57612c1e612946565b5b6000612c2d85828601612999565b9250506020612c3e85828601612b9c565b9150509250929050565b6000819050919050565b6000612c6d612c68612c6384612950565b612c48565b612950565b9050919050565b6000612c7f82612c52565b9050919050565b6000612c9182612c74565b9050919050565b612ca181612c86565b82525050565b6000602082019050612cbc6000830184612c98565b92915050565b600080600060608486031215612cdb57612cda612946565b5b6000612ce986828701612999565b9350506020612cfa86828701612999565b9250506040612d0b86828701612b9c565b9150509250925092565b6000819050919050565b612d2881612d15565b8114612d3357600080fd5b50565b600081359050612d4581612d1f565b92915050565b60008060408385031215612d6257612d61612946565b5b6000612d7085828601612d36565b9250506020612d8185828601612b9c565b9150509250929050565b6000604082019050612da06000830185612aa0565b612dad60208301846129e5565b9392505050565b612dbd81612d15565b82525050565b6000602082019050612dd86000830184612db4565b92915050565b600060208284031215612df457612df3612946565b5b6000612e0284828501612d36565b91505092915050565b612e1481612a94565b8114612e1f57600080fd5b50565b600081359050612e3181612e0b565b92915050565b60008060408385031215612e4e57612e4d612946565b5b6000612e5c85828601612999565b9250506020612e6d85828601612e22565b9150509250929050565b600081519050919050565b600082825260208201905092915050565b6000612e9e82612e77565b612ea88185612e82565b9350612eb8818560208601612ae6565b612ec181612b19565b840191505092915050565b6000606082019050612ee16000830186612aa0565b8181036020830152612ef38185612e93565b9050612f0260408301846129e5565b949350505050565b600080fd5b600080fd5b7f4e487b7100000000000000000000000000000000000000000000000000000000600052604160045260246000fd5b612f4c82612b19565b810181811067ffffffffffffffff82111715612f6b57612f6a612f14565b5b80604052505050565b6000612f7e61293c565b9050612f8a8282612f43565b919050565b600067ffffffffffffffff821115612faa57612fa9612f14565b5b612fb382612b19565b9050602081019050919050565b82818337600083830152505050565b6000612fe2612fdd84612f8f565b612f74565b905082815260208101848484011115612ffe57612ffd612f0f565b5b613009848285612fc0565b509392505050565b600082601f83011261302657613025612f0a565b5b8135613036848260208601612fcf565b91505092915050565b6000806000806080858703121561305957613058612946565b5b600061306787828801612999565b945050602061307887828801612999565b935050604061308987828801612b9c565b925050606085013567ffffffffffffffff8111156130aa576130a961294b565b5b6130b687828801613011565b91505092959194509250565b600060208201905081810360008301526130dc8184612e93565b905092915050565b600080604083850312156130fb576130fa612946565b5b600061310985828601612999565b925050602061311a85828601612999565b9150509250929050565b7f4e487b7100000000000000000000000000000000000000000000000000000000600052601160045260246000fd5b600061315e826129db565b91507fffffffffffffffffffffffffffffffffffffffffffffffffffffffffffffffff82141561319157613190613124565b5b600182019050919050565b60006131a7826129db565b91506131b2836129db565b9250828210156131c5576131c4613124565b5b828203905092915050565b6000815190506131df81612b85565b92915050565b6000602082840312156131fb576131fa612946565b5b6000613209848285016131d0565b91505092915050565b7f4e487b7100000000000000000000000000000000000000000000000000000000600052602260045260246000fd5b6000600282049050600182168061325957607f821691505b6020821081141561326d5761326c613212565b5b50919050565b7f4552433732313a20617070726f76616c20746f2063757272656e74206f776e6560008201527f7200000000000000000000000000000000000000000000000000000000000000602082015250565b60006132cf602183612ad5565b91506132da82613273565b604082019050919050565b600060208201905081810360008301526132fe816132c2565b9050919050565b7f4552433732313a20617070726f76652063616c6c6572206973206e6f7420746f60008201527f6b656e206f776e6572206e6f7220617070726f76656420666f7220616c6c0000602082015250565b6000613361603e83612ad5565b915061336c82613305565b604082019050919050565b6000602082019050818103600083015261339081613354565b9050919050565b7f4552433732313a2063616c6c6572206973206e6f7420746f6b656e206f776e6560008201527f72206e6f7220617070726f766564000000000000000000000000000000000000602082015250565b60006133f3602e83612ad5565b91506133fe82613397565b604082019050919050565b60006020820190508181036000830152613422816133e6565b9050919050565b7f4e487b7100000000000000000000000000000000000000000000000000000000600052601260045260246000fd5b6000613463826129db565b915061346e836129db565b92508261347e5761347d613429565b5b828204905092915050565b6000613494826129db565b915061349f836129db565b9250827fffffffffffffffffffffffffffffffffffffffffffffffffffffffffffffffff038211156134d4576134d3613124565b5b828201905092915050565b6000819050919050565b60008160001b9050919050565b600061351161350c613507846134df565b6134e9565b612d15565b9050919050565b613521816134f6565b82525050565b600060208201905061353c6000830184613518565b92915050565b60008151905061355181612982565b92915050565b60006020828403121561356d5761356c612946565b5b600061357b84828501613542565b91505092915050565b6000819050919050565b61359f61359a82612d15565b613584565b82525050565b6000819050919050565b6135c06135bb826129db565b6135a5565b82525050565b60006135d2828561358e565b6020820191506135e282846135af565b6020820191508190509392505050565b600067ffffffffffffffff82111561360d5761360c612f14565b5b602082029050602081019050919050565b600080fd5b6000613636613631846135f2565b612f74565b905080838252602082019050602084028301858111156136595761365861361e565b5b835b81811015613682578061366e88826131d0565b84526020840193505060208101905061365b565b5050509392505050565b600082601f8301126136a1576136a0612f0a565b5b81516136b1848260208601613623565b91505092915050565b6000602082840312156136d0576136cf612946565b5b600082015167ffffffffffffffff8111156136ee576136ed61294b565b5b6136fa8482850161368c565b91505092915050565b7f4552433732313a20696e76616c696420746f6b656e2049440000000000000000600082015250565b6000613739601883612ad5565b915061374482613703565b602082019050919050565b600060208201905081810360008301526137688161372c565b9050919050565b7f4552433732313a2061646472657373207a65726f206973206e6f74206120766160008201527f6c6964206f776e65720000000000000000000000000000000000000000000000602082015250565b60006137cb602983612ad5565b91506137d68261376f565b604082019050919050565b600060208201905081810360008301526137fa816137be565b9050919050565b60006040820190506138166000830185612db4565b61382360208301846129e5565b9392505050565b600061383d61383884612f8f565b612f74565b90508281526020810184848401111561385957613858612f0f565b5b613864848285612ae6565b509392505050565b600082601f83011261388157613880612f0a565b5b815161389184826020860161382a565b91505092915050565b6000602082840312156138b0576138af612946565b5b600082015167ffffffffffffffff8111156138ce576138cd61294b565b5b6138da8482850161386c565b91505092915050565b7f4552433732313a207472616e736665722066726f6d20696e636f72726563742060008201527f6f776e6572000000000000000000000000000000000000000000000000000000602082015250565b600061393f602583612ad5565b915061394a826138e3565b604082019050919050565b6000602082019050818103600083015261396e81613932565b9050919050565b7f4552433732313a207472616e7366657220746f20746865207a65726f2061646460008201527f7265737300000000000000000000000000000000000000000000000000000000602082015250565b60006139d1602483612ad5565b91506139dc82613975565b604082019050919050565b60006020820190508181036000830152613a00816139c4565b9050919050565b7f45524337323155524953746f726167653a2055524920736574206f66206e6f6e60008201527f6578697374656e7420746f6b656e000000000000000000000000000000000000602082015250565b6000613a63602e83612ad5565b9150613a6e82613a07565b604082019050919050565b60006020820190508181036000830152613a9281613a56565b9050919050565b7f4552433732313a20617070726f766520746f2063616c6c657200000000000000600082015250565b6000613acf601983612ad5565b9150613ada82613a99565b602082019050919050565b60006020820190508181036000830152613afe81613ac2565b9050919050565b7f4552433732313a207472616e7366657220746f206e6f6e20455243373231526560008201527f63656976657220696d706c656d656e7465720000000000000000000000000000602082015250565b6000613b61603283612ad5565b9150613b6c82613b05565b604082019050919050565b60006020820190508181036000830152613b9081613b54565b9050919050565b600081905092915050565b6000613bad82612aca565b613bb78185613b97565b9350613bc7818560208601612ae6565b80840191505092915050565b6000613bdf8285613ba2565b9150613beb8284613ba2565b91508190509392505050565b6000608082019050613c0c6000830187612bde565b613c196020830186612bde565b613c2660408301856129e5565b8181036060830152613c388184612e93565b905095945050505050565b600081519050613c5281612a3b565b92915050565b600060208284031215613c6e57613c6d612946565b5b6000613c7c84828501613c43565b91505092915050565b7f4552433732313a206d696e7420746f20746865207a65726f2061646472657373600082015250565b6000613cbb602083612ad5565b9150613cc682613c85565b602082019050919050565b60006020820190508181036000830152613cea81613cae565b9050919050565b7f4552433732313a20746f6b656e20616c7265616479206d696e74656400000000600082015250565b6000613d27601c83612ad5565b9150613d3282613cf1565b602082019050919050565b60006020820190508181036000830152613d5681613d1a565b9050919050565b6000613d68826129db565b9150613d73836129db565b925082613d8357613d82613429565b5b828206905092915050565b7f4e487b7100000000000000000000000000000000000000000000000000000000600052603260045260246000fdfe697066733a2f2f516d52327a48634e68624d397073375651446f6135644865485a6e587a66595947436d61346e766665364a365637a264697066735822122076ee33e4918fbed637cc85fbf9be2e523a1fe597b1cd0358bd2edfe7d683eb5f64736f6c63430008090033",
  "linkReferences": {},
  "deployedLinkReferences": {}
}