{
  "_format": "hh-sol-artifact-1",
  "contractName": "DynamicNFT",
  "sourceName": "contracts/DynamicNFT.sol",
  "abi": [
    {
      "inputs": [
        {
          "internalType": "string",
          "name": "tokenName",
          "type": "string"
        },
        {
          "internalType": "string",
          "name": "symbol",
          "type": "string"
        },
        {
          "internalType": "bytes32",
          "name": "_tellorID",
          "type": "bytes32"
        },
        {
          "internalType": "address payable",
          "name": "_tellorAddress",
          "type": "address"
        }
      ],
      "stateMutability": "nonpayable",
      "type": "constructor"
    },
    {
      "anonymous": false,
      "inputs": [
        {
          "indexed": true,
          "internalType": "address",
          "name": "owner",
          "type": "address"
        },
        {
          "indexed": true,
          "internalType": "address",
          "name": "approved",
          "type": "address"
        },
        {
          "indexed": true,
          "internalType": "uint256",
          "name": "tokenId",
          "type": "uint256"
        }
      ],
      "name": "Approval",
      "type": "event"
    },
    {
      "anonymous": false,
      "inputs": [
        {
          "indexed": true,
          "internalType": "address",
          "name": "owner",
          "type": "address"
        },
        {
          "indexed": true,
          "internalType": "address",
          "name": "operator",
          "type": "address"
        },
        {
          "indexed": false,
          "internalType": "bool",
          "name": "approved",
          "type": "bool"
        }
      ],
      "name": "ApprovalForAll",
      "type": "event"
    },
    {
      "anonymous": false,
      "inputs": [
        {
          "indexed": true,
          "internalType": "address",
          "name": "from",
          "type": "address"
        },
        {
          "indexed": true,
          "internalType": "address",
          "name": "to",
          "type": "address"
        },
        {
          "indexed": true,
          "internalType": "uint256",
          "name": "tokenId",
          "type": "uint256"
        }
      ],
      "name": "Transfer",
      "type": "event"
    },
    {
      "inputs": [
        {
          "internalType": "address",
          "name": "to",
          "type": "address"
        },
        {
          "internalType": "uint256",
          "name": "tokenId",
          "type": "uint256"
        }
      ],
      "name": "approve",
      "outputs": [],
      "stateMutability": "nonpayable",
      "type": "function"
    },
    {
      "inputs": [
        {
          "internalType": "address",
          "name": "owner",
          "type": "address"
        }
      ],
      "name": "balanceOf",
      "outputs": [
        {
          "internalType": "uint256",
          "name": "",
          "type": "uint256"
        }
      ],
      "stateMutability": "view",
      "type": "function"
    },
    {
      "inputs": [
        {
          "internalType": "uint256",
          "name": "tokenId",
          "type": "uint256"
        }
      ],
      "name": "getApproved",
      "outputs": [
        {
          "internalType": "address",
          "name": "",
          "type": "address"
        }
      ],
      "stateMutability": "view",
      "type": "function"
    },
    {
      "inputs": [
        {
          "internalType": "bytes32",
          "name": "_queryId",
          "type": "bytes32"
        }
      ],
      "name": "getCurrentValue",
      "outputs": [
        {
          "internalType": "bool",
          "name": "_ifRetrieve",
          "type": "bool"
        },
        {
          "internalType": "bytes",
          "name": "_value",
          "type": "bytes"
        },
        {
          "internalType": "uint256",
          "name": "_timestampRetrieved",
          "type": "uint256"
        }
      ],
      "stateMutability": "view",
      "type": "function"
    },
    {
      "inputs": [
        {
          "internalType": "bytes32",
          "name": "_queryId",
          "type": "bytes32"
        },
        {
          "internalType": "uint256",
          "name": "_timestamp",
          "type": "uint256"
        }
      ],
      "name": "getDataBefore",
      "outputs": [
        {
          "internalType": "bool",
          "name": "_ifRetrieve",
          "type": "bool"
        },
        {
          "internalType": "bytes",
          "name": "_value",
          "type": "bytes"
        },
        {
          "internalType": "uint256",
          "name": "_timestampRetrieved",
          "type": "uint256"
        }
      ],
      "stateMutability": "view",
      "type": "function"
    },
    {
      "inputs": [
        {
          "internalType": "bytes32",
          "name": "_queryId",
          "type": "bytes32"
        },
        {
          "internalType": "uint256",
          "name": "_timestamp",
          "type": "uint256"
        }
      ],
      "name": "getIndexForDataBefore",
      "outputs": [
        {
          "internalType": "bool",
          "name": "_found",
          "type": "bool"
        },
        {
          "internalType": "uint256",
          "name": "_index",
          "type": "uint256"
        }
      ],
      "stateMutability": "view",
      "type": "function"
    },
    {
      "inputs": [
        {
          "internalType": "bytes32",
          "name": "_queryId",
          "type": "bytes32"
        }
      ],
      "name": "getNewValueCountbyQueryId",
      "outputs": [
        {
          "internalType": "uint256",
          "name": "",
          "type": "uint256"
        }
      ],
      "stateMutability": "view",
      "type": "function"
    },
    {
      "inputs": [
        {
          "internalType": "uint256",
          "name": "_id",
          "type": "uint256"
        }
      ],
      "name": "getStartPrice",
      "outputs": [
        {
          "internalType": "uint256",
          "name": "",
          "type": "uint256"
        }
      ],
      "stateMutability": "view",
      "type": "function"
    },
    {
      "inputs": [
        {
          "internalType": "bytes32",
          "name": "_queryId",
          "type": "bytes32"
        },
        {
          "internalType": "uint256",
          "name": "_index",
          "type": "uint256"
        }
      ],
      "name": "getTimestampbyQueryIdandIndex",
      "outputs": [
        {
          "internalType": "uint256",
          "name": "",
          "type": "uint256"
        }
      ],
      "stateMutability": "view",
      "type": "function"
    },
    {
      "inputs": [
        {
          "internalType": "address",
          "name": "owner",
          "type": "address"
        },
        {
          "internalType": "address",
          "name": "operator",
          "type": "address"
        }
      ],
      "name": "isApprovedForAll",
      "outputs": [
        {
          "internalType": "bool",
          "name": "",
          "type": "bool"
        }
      ],
      "stateMutability": "view",
      "type": "function"
    },
    {
      "inputs": [
        {
          "internalType": "bytes32",
          "name": "_queryId",
          "type": "bytes32"
        },
        {
          "internalType": "uint256",
          "name": "_timestamp",
          "type": "uint256"
        }
      ],
      "name": "isInDispute",
      "outputs": [
        {
          "internalType": "bool",
          "name": "",
          "type": "bool"
        }
      ],
      "stateMutability": "view",
      "type": "function"
    },
    {
      "inputs": [],
      "name": "metadataURI_down",
      "outputs": [
        {
          "internalType": "string",
          "name": "",
          "type": "string"
        }
      ],
      "stateMutability": "view",
      "type": "function"
    },
    {
      "inputs": [],
      "name": "metadataURI_up",
      "outputs": [
        {
          "internalType": "string",
          "name": "",
          "type": "string"
        }
      ],
      "stateMutability": "view",
      "type": "function"
    },
    {
      "inputs": [
        {
          "internalType": "address",
          "name": "_owner",
          "type": "address"
        }
      ],
      "name": "mintToken",
      "outputs": [
        {
          "internalType": "uint256",
          "name": "_id",
          "type": "uint256"
        }
      ],
      "stateMutability": "nonpayable",
      "type": "function"
    },
    {
      "inputs": [],
      "name": "name",
      "outputs": [
        {
          "internalType": "string",
          "name": "",
          "type": "string"
        }
      ],
      "stateMutability": "view",
      "type": "function"
    },
    {
      "inputs": [
        {
          "internalType": "uint256",
          "name": "tokenId",
          "type": "uint256"
        }
      ],
      "name": "ownerOf",
      "outputs": [
        {
          "internalType": "address",
          "name": "",
          "type": "address"
        }
      ],
      "stateMutability": "view",
      "type": "function"
    },
    {
      "inputs": [
        {
          "internalType": "bytes32",
          "name": "_queryId",
          "type": "bytes32"
        },
        {
          "internalType": "uint256",
          "name": "_timestamp",
          "type": "uint256"
        }
      ],
      "name": "retrieveData",
      "outputs": [
        {
          "internalType": "bytes",
          "name": "",
          "type": "bytes"
        }
      ],
      "stateMutability": "view",
      "type": "function"
    },
    {
      "inputs": [
        {
          "internalType": "address",
          "name": "from",
          "type": "address"
        },
        {
          "internalType": "address",
          "name": "to",
          "type": "address"
        },
        {
          "internalType": "uint256",
          "name": "tokenId",
          "type": "uint256"
        }
      ],
      "name": "safeTransferFrom",
      "outputs": [],
      "stateMutability": "nonpayable",
      "type": "function"
    },
    {
      "inputs": [
        {
          "internalType": "address",
          "name": "from",
          "type": "address"
        },
        {
          "internalType": "address",
          "name": "to",
          "type": "address"
        },
        {
          "internalType": "uint256",
          "name": "tokenId",
          "type": "uint256"
        },
        {
          "internalType": "bytes",
          "name": "data",
          "type": "bytes"
        }
      ],
      "name": "safeTransferFrom",
      "outputs": [],
      "stateMutability": "nonpayable",
      "type": "function"
    },
    {
      "inputs": [
        {
          "internalType": "address",
          "name": "operator",
          "type": "address"
        },
        {
          "internalType": "bool",
          "name": "approved",
          "type": "bool"
        }
      ],
      "name": "setApprovalForAll",
      "outputs": [],
      "stateMutability": "nonpayable",
      "type": "function"
    },
    {
      "inputs": [],
      "name": "supply",
      "outputs": [
        {
          "internalType": "uint256",
          "name": "",
          "type": "uint256"
        }
      ],
      "stateMutability": "view",
      "type": "function"
    },
    {
      "inputs": [
        {
          "internalType": "bytes4",
          "name": "interfaceId",
          "type": "bytes4"
        }
      ],
      "name": "supportsInterface",
      "outputs": [
        {
          "internalType": "bool",
          "name": "",
          "type": "bool"
        }
      ],
      "stateMutability": "view",
      "type": "function"
    },
    {
      "inputs": [],
      "name": "symbol",
      "outputs": [
        {
          "internalType": "string",
          "name": "",
          "type": "string"
        }
      ],
      "stateMutability": "view",
      "type": "function"
    },
    {
      "inputs": [],
      "name": "tellor",
      "outputs": [
        {
          "internalType": "contract ITellor",
          "name": "",
          "type": "address"
        }
      ],
      "stateMutability": "view",
      "type": "function"
    },
    {
      "inputs": [],
      "name": "tellorID",
      "outputs": [
        {
          "internalType": "bytes32",
          "name": "",
          "type": "bytes32"
        }
      ],
      "stateMutability": "view",
      "type": "function"
    },
    {
      "inputs": [
        {
          "internalType": "uint256",
          "name": "tokenId",
          "type": "uint256"
        }
      ],
      "name": "tokenURI",
      "outputs": [
        {
          "internalType": "string",
          "name": "",
          "type": "string"
        }
      ],
      "stateMutability": "view",
      "type": "function"
    },
    {
      "inputs": [
        {
          "internalType": "address",
          "name": "from",
          "type": "address"
        },
        {
          "internalType": "address",
          "name": "to",
          "type": "address"
        },
        {
          "internalType": "uint256",
          "name": "tokenId",
          "type": "uint256"
        }
      ],
      "name": "transferFrom",
      "outputs": [],
      "stateMutability": "nonpayable",
      "type": "function"
    },
    {
      "inputs": [
        {
          "internalType": "uint256",
          "name": "_id",
          "type": "uint256"
        }
      ],
      "name": "updateURI",
      "outputs": [],
      "stateMutability": "nonpayable",
      "type": "function"
    }
  ],
  "bytecode": "0x60806040523480156200001157600080fd5b50604051620043ff380380620043ff8339818101604052810190620000379190620003ae565b808484816000908051906020019062000052929190620000c1565b5080600190805190602001906200006b929190620000c1565b50505080600760006101000a81548173ffffffffffffffffffffffffffffffffffffffff021916908373ffffffffffffffffffffffffffffffffffffffff160217905550508160088190555050505050620004c3565b828054620000cf906200048d565b90600052602060002090601f016020900481019282620000f357600085556200013f565b82601f106200010e57805160ff19168380011785556200013f565b828001600101855582156200013f579182015b828111156200013e57825182559160200191906001019062000121565b5b5090506200014e919062000152565b5090565b5b808211156200016d57600081600090555060010162000153565b5090565b6000604051905090565b600080fd5b600080fd5b600080fd5b600080fd5b6000601f19601f8301169050919050565b7f4e487b7100000000000000000000000000000000000000000000000000000000600052604160045260246000fd5b620001da826200018f565b810181811067ffffffffffffffff82111715620001fc57620001fb620001a0565b5b80604052505050565b60006200021162000171565b90506200021f8282620001cf565b919050565b600067ffffffffffffffff821115620002425762000241620001a0565b5b6200024d826200018f565b9050602081019050919050565b60005b838110156200027a5780820151818401526020810190506200025d565b838111156200028a576000848401525b50505050565b6000620002a7620002a18462000224565b62000205565b905082815260208101848484011115620002c657620002c56200018a565b5b620002d38482856200025a565b509392505050565b600082601f830112620002f357620002f262000185565b5b81516200030584826020860162000290565b91505092915050565b6000819050919050565b62000323816200030e565b81146200032f57600080fd5b50565b600081519050620003438162000318565b92915050565b600073ffffffffffffffffffffffffffffffffffffffff82169050919050565b6000620003768262000349565b9050919050565b620003888162000369565b81146200039457600080fd5b50565b600081519050620003a8816200037d565b92915050565b60008060008060808587031215620003cb57620003ca6200017b565b5b600085015167ffffffffffffffff811115620003ec57620003eb62000180565b5b620003fa87828801620002db565b945050602085015167ffffffffffffffff8111156200041e576200041d62000180565b5b6200042c87828801620002db565b93505060406200043f8782880162000332565b9250506060620004528782880162000397565b91505092959194509250565b7f4e487b7100000000000000000000000000000000000000000000000000000000600052602260045260246000fd5b60006002820490506001821680620004a657607f821691505b60208210811415620004bd57620004bc6200045e565b5b50919050565b613f2c80620004d36000396000f3fe608060405234801561001057600080fd5b50600436106101c45760003560e01c806370a08231116100f9578063adf1639d11610097578063c87b56dd11610071578063c87b56dd14610558578063ce5e11bf14610588578063d2df9240146105b8578063e985e9c5146105e8576101c4565b8063adf1639d146104da578063b88d4fde1461050c578063c5958af914610528576101c4565b806395d89b41116100d357806395d89b41146104505780639f1793691461046e578063a22cb4651461048c578063a792765f146104a8576101c4565b806370a08231146103d257806376f0154f1461040257806377b03e0d14610420576101c4565b806323b872dd1161016657806342842e0e1161014057806342842e0e1461033857806344e87f91146103545780636352211e14610384578063641348ac146103b4576101c4565b806323b872dd146102cf57806329449085146102eb5780634261e65d1461031c576101c4565b806306fdde03116101a257806306fdde0314610247578063081812fc14610265578063095ea7b3146102955780631959ad5b146102b1576101c4565b806301173a74146101c957806301ffc9a7146101f9578063047fc9aa14610229575b600080fd5b6101e360048036038101906101de9190612a7d565b610618565b6040516101f09190612ac3565b60405180910390f35b610213600480360381019061020e9190612b36565b6106c5565b6040516102209190612b7e565b60405180910390f35b6102316106d7565b60405161023e9190612ac3565b60405180910390f35b61024f6106dd565b60405161025c9190612c32565b60405180910390f35b61027f600480360381019061027a9190612c80565b61076f565b60405161028c9190612cbc565b60405180910390f35b6102af60048036038101906102aa9190612cd7565b6107b5565b005b6102b96108cd565b6040516102c69190612d76565b60405180910390f35b6102e960048036038101906102e49190612d91565b6108f3565b005b61030560048036038101906103009190612e1a565b610953565b604051610313929190612e5a565b60405180910390f35b61033660048036038101906103319190612c80565b610ace565b005b610352600480360381019061034d9190612d91565b610b7d565b005b61036e60048036038101906103699190612e1a565b610b9d565b60405161037b9190612b7e565b60405180910390f35b61039e60048036038101906103999190612c80565b610ea6565b6040516103ab9190612cbc565b60405180910390f35b6103bc610f58565b6040516103c99190612e92565b60405180910390f35b6103ec60048036038101906103e79190612a7d565b610f5e565b6040516103f99190612ac3565b60405180910390f35b61040a611016565b6040516104179190612c32565b60405180910390f35b61043a60048036038101906104359190612ead565b611032565b6040516104479190612ac3565b60405180910390f35b61045861126f565b6040516104659190612c32565b60405180910390f35b610476611301565b6040516104839190612c32565b60405180910390f35b6104a660048036038101906104a19190612f06565b61131d565b005b6104c260048036038101906104bd9190612e1a565b611333565b6040516104d193929190612f9b565b60405180910390f35b6104f460048036038101906104ef9190612ead565b6113e5565b60405161050393929190612f9b565b60405180910390f35b6105266004803603810190610521919061310e565b61149e565b005b610542600480360381019061053d9190612e1a565b611500565b60405161054f9190613191565b60405180910390f35b610572600480360381019061056d9190612c80565b61174c565b60405161057f9190612c32565b60405180910390f35b6105a2600480360381019061059d9190612e1a565b61175e565b6040516105af9190612ac3565b60405180910390f35b6105d260048036038101906105cd9190612c80565b6119a0565b6040516105df9190612ac3565b60405180910390f35b61060260048036038101906105fd91906131b3565b6119bd565b60405161060f9190612b7e565b60405180910390f35b60006009600081548092919061062d90613222565b91905055506009549050600080610652600854600a4261064d919061326b565b611333565b50915091508161066157600080fd5b60008180602001905181019061067791906132b4565b905080600a60008681526020019081526020016000208190555061069b8585611a51565b6106bd84604051806060016040528060358152602001613ec260359139611a6f565b505050919050565b60006106d082611ae3565b9050919050565b60095481565b6060600080546106ec90613310565b80601f016020809104026020016040519081016040528092919081815260200182805461071890613310565b80156107655780601f1061073a57610100808354040283529160200191610765565b820191906000526020600020905b81548152906001019060200180831161074857829003601f168201915b5050505050905090565b600061077a82611bc5565b6004600083815260200190815260200160002060009054906101000a900473ffffffffffffffffffffffffffffffffffffffff169050919050565b60006107c082610ea6565b90508073ffffffffffffffffffffffffffffffffffffffff168373ffffffffffffffffffffffffffffffffffffffff161415610831576040517f08c379a0000000000000000000000000000000000000000000000000000000008152600401610828906133b4565b60405180910390fd5b8073ffffffffffffffffffffffffffffffffffffffff16610850611c10565b73ffffffffffffffffffffffffffffffffffffffff16148061087f575061087e81610879611c10565b6119bd565b5b6108be576040517f08c379a00000000000000000000000000000000000000000000000000000000081526004016108b590613446565b60405180910390fd5b6108c88383611c18565b505050565b600760009054906101000a900473ffffffffffffffffffffffffffffffffffffffff1681565b6109046108fe611c10565b82611cd1565b610943576040517f08c379a000000000000000000000000000000000000000000000000000000000815260040161093a906134d8565b60405180910390fd5b61094e838383611d66565b505050565b600080600061096185611032565b90506000811115610abe57600080600090506000600184610982919061326b565b90506000610990898461175e565b90508781106109aa57600080965096505050505050610ac7565b6109b4898361175e565b9050878110156109cf57600182965096505050505050610ac7565b5b600115610ab957826001600285856109e8919061326b565b6109f29190613527565b6109fc9190613558565b610a069190613558565b9350610a12898561175e565b905087811015610a64576000610a348a600187610a2f9190613558565b61175e565b9050888110610a4f5760018597509750505050505050610ac7565b600185610a5c9190613558565b935050610ab4565b6000610a7c8a600187610a77919061326b565b61175e565b905088811015610aa35760018086610a94919061326b565b97509750505050505050610ac7565b600185610ab0919061326b565b9250505b6109d0565b505050505b60008092509250505b9250929050565b600080610ae9600854600a42610ae4919061326b565b611333565b509150915081610afa575050610b7a565b600081806020019051810190610b1091906132b4565b9050600a6000858152602001908152602001600020548110610b5357610b4e84604051806060016040528060358152602001613ec260359139611a6f565b610b76565b610b7584604051806060016040528060358152602001613e8d60359139611a6f565b5b5050505b50565b610b988383836040518060200160405280600081525061149e565b505050565b6000807318431fd88adf138e8b979a7246eb58ea7126ea1673ffffffffffffffffffffffffffffffffffffffff16600760009054906101000a900473ffffffffffffffffffffffffffffffffffffffff1673ffffffffffffffffffffffffffffffffffffffff161480610c71575073e8218cacb0a5421bc6409e498d9f8cc8869945ea73ffffffffffffffffffffffffffffffffffffffff16600760009054906101000a900473ffffffffffffffffffffffffffffffffffffffff1673ffffffffffffffffffffffffffffffffffffffff16145b15610d405760007388df592f8eb5d7bd38bfef7deb0fbc02cf3778a090508073ffffffffffffffffffffffffffffffffffffffff1663699f200f7fefa19baa864049f50491093580c5433e97e8d5e41f8db1a61108b4fa44cacd936040518263ffffffff1660e01b8152600401610ce891906135f6565b60206040518083038186803b158015610d0057600080fd5b505afa158015610d14573d6000803e3d6000fd5b505050506040513d601f19601f82011682018060405250810190610d389190613626565b915050610de3565b600760009054906101000a900473ffffffffffffffffffffffffffffffffffffffff1673ffffffffffffffffffffffffffffffffffffffff16635aa6e6756040518163ffffffff1660e01b815260040160206040518083038186803b158015610da857600080fd5b505afa158015610dbc573d6000803e3d6000fd5b505050506040513d601f19601f82011682018060405250810190610de09190613626565b90505b60008173ffffffffffffffffffffffffffffffffffffffff1663248638e58686604051602001610e14929190613695565b604051602081830303815290604052805190602001206040518263ffffffff1660e01b8152600401610e469190612e92565b60006040518083038186803b158015610e5e57600080fd5b505afa158015610e72573d6000803e3d6000fd5b505050506040513d6000823e3d601f19601f82011682018060405250810190610e9b9190613789565b511191505092915050565b6000806002600084815260200190815260200160002060009054906101000a900473ffffffffffffffffffffffffffffffffffffffff169050600073ffffffffffffffffffffffffffffffffffffffff168173ffffffffffffffffffffffffffffffffffffffff161415610f4f576040517f08c379a0000000000000000000000000000000000000000000000000000000008152600401610f469061381e565b60405180910390fd5b80915050919050565b60085481565b60008073ffffffffffffffffffffffffffffffffffffffff168273ffffffffffffffffffffffffffffffffffffffff161415610fcf576040517f08c379a0000000000000000000000000000000000000000000000000000000008152600401610fc6906138b0565b60405180910390fd5b600360008373ffffffffffffffffffffffffffffffffffffffff1673ffffffffffffffffffffffffffffffffffffffff168152602001908152602001600020549050919050565b604051806060016040528060358152602001613e8d6035913981565b60007318431fd88adf138e8b979a7246eb58ea7126ea1673ffffffffffffffffffffffffffffffffffffffff16600760009054906101000a900473ffffffffffffffffffffffffffffffffffffffff1673ffffffffffffffffffffffffffffffffffffffff161480611105575073e8218cacb0a5421bc6409e498d9f8cc8869945ea73ffffffffffffffffffffffffffffffffffffffff16600760009054906101000a900473ffffffffffffffffffffffffffffffffffffffff1673ffffffffffffffffffffffffffffffffffffffff16145b156111bc57600760009054906101000a900473ffffffffffffffffffffffffffffffffffffffff1673ffffffffffffffffffffffffffffffffffffffff166335e72432836040518263ffffffff1660e01b81526004016111659190612e92565b60206040518083038186803b15801561117d57600080fd5b505afa158015611191573d6000803e3d6000fd5b505050506040513d601f19601f820116820180604052508101906111b591906132b4565b905061126a565b600760009054906101000a900473ffffffffffffffffffffffffffffffffffffffff1673ffffffffffffffffffffffffffffffffffffffff166377b03e0d836040518263ffffffff1660e01b81526004016112179190612e92565b60206040518083038186803b15801561122f57600080fd5b505afa158015611243573d6000803e3d6000fd5b505050506040513d601f19601f8201168201806040525081019061126791906132b4565b90505b919050565b60606001805461127e90613310565b80601f01602080910402602001604051908101604052809291908181526020018280546112aa90613310565b80156112f75780601f106112cc576101008083540402835291602001916112f7565b820191906000526020600020905b8154815290600101906020018083116112da57829003601f168201915b5050505050905090565b604051806060016040528060358152602001613ec26035913981565b61132f611328611c10565b8383611fcd565b5050565b6000606060008060006113468787610953565b915091508161137057600060405180602001604052806000815250600094509450945050506113de565b600061137c888361175e565b90506113888882611500565b945060405180602001604052806000815250805190602001208580519060200120146113c057600185829550955095505050506113de565b60006040518060200160405280600081525060009550955095505050505b9250925092565b600060606000806113f585611032565b9050600081141561142057600060405180602001604052806000815250600093509350935050611497565b600061143886600184611433919061326b565b61175e565b90506114448682611500565b9350604051806020016040528060008152508051906020012084805190602001201461147b57600184829450945094505050611497565b6000604051806020016040528060008152508294509450945050505b9193909250565b6114af6114a9611c10565b83611cd1565b6114ee576040517f08c379a00000000000000000000000000000000000000000000000000000000081526004016114e5906134d8565b60405180910390fd5b6114fa8484848461213a565b50505050565b60607318431fd88adf138e8b979a7246eb58ea7126ea1673ffffffffffffffffffffffffffffffffffffffff16600760009054906101000a900473ffffffffffffffffffffffffffffffffffffffff1673ffffffffffffffffffffffffffffffffffffffff1614806115d3575073e8218cacb0a5421bc6409e498d9f8cc8869945ea73ffffffffffffffffffffffffffffffffffffffff16600760009054906101000a900473ffffffffffffffffffffffffffffffffffffffff1673ffffffffffffffffffffffffffffffffffffffff16145b1561169157600760009054906101000a900473ffffffffffffffffffffffffffffffffffffffff1673ffffffffffffffffffffffffffffffffffffffff16630b2d2b0d84846040518363ffffffff1660e01b81526004016116359291906138d0565b60006040518083038186803b15801561164d57600080fd5b505afa158015611661573d6000803e3d6000fd5b505050506040513d6000823e3d601f19601f8201168201806040525081019061168a9190613969565b9050611746565b600760009054906101000a900473ffffffffffffffffffffffffffffffffffffffff1673ffffffffffffffffffffffffffffffffffffffff1663c5958af984846040518363ffffffff1660e01b81526004016116ee9291906138d0565b60006040518083038186803b15801561170657600080fd5b505afa15801561171a573d6000803e3d6000fd5b505050506040513d6000823e3d601f19601f820116820180604052508101906117439190613969565b90505b92915050565b606061175782612196565b9050919050565b60007318431fd88adf138e8b979a7246eb58ea7126ea1673ffffffffffffffffffffffffffffffffffffffff16600760009054906101000a900473ffffffffffffffffffffffffffffffffffffffff1673ffffffffffffffffffffffffffffffffffffffff161480611831575073e8218cacb0a5421bc6409e498d9f8cc8869945ea73ffffffffffffffffffffffffffffffffffffffff16600760009054906101000a900473ffffffffffffffffffffffffffffffffffffffff1673ffffffffffffffffffffffffffffffffffffffff16145b156118ea57600760009054906101000a900473ffffffffffffffffffffffffffffffffffffffff1673ffffffffffffffffffffffffffffffffffffffff16637c37b8b484846040518363ffffffff1660e01b81526004016118939291906138d0565b60206040518083038186803b1580156118ab57600080fd5b505afa1580156118bf573d6000803e3d6000fd5b505050506040513d601f19601f820116820180604052508101906118e391906132b4565b905061199a565b600760009054906101000a900473ffffffffffffffffffffffffffffffffffffffff1673ffffffffffffffffffffffffffffffffffffffff1663ce5e11bf84846040518363ffffffff1660e01b81526004016119479291906138d0565b60206040518083038186803b15801561195f57600080fd5b505afa158015611973573d6000803e3d6000fd5b505050506040513d601f19601f8201168201806040525081019061199791906132b4565b90505b92915050565b6000600a6000838152602001908152602001600020549050919050565b6000600560008473ffffffffffffffffffffffffffffffffffffffff1673ffffffffffffffffffffffffffffffffffffffff16815260200190815260200160002060008373ffffffffffffffffffffffffffffffffffffffff1673ffffffffffffffffffffffffffffffffffffffff16815260200190815260200160002060009054906101000a900460ff16905092915050565b611a6b8282604051806020016040528060008152506122a9565b5050565b611a7882612304565b611ab7576040517f08c379a0000000000000000000000000000000000000000000000000000000008152600401611aae90613a24565b60405180910390fd5b80600660008481526020019081526020016000209080519060200190611ade929190612968565b505050565b60007f80ac58cd000000000000000000000000000000000000000000000000000000007bffffffffffffffffffffffffffffffffffffffffffffffffffffffff1916827bffffffffffffffffffffffffffffffffffffffffffffffffffffffff19161480611bae57507f5b5e139f000000000000000000000000000000000000000000000000000000007bffffffffffffffffffffffffffffffffffffffffffffffffffffffff1916827bffffffffffffffffffffffffffffffffffffffffffffffffffffffff1916145b80611bbe5750611bbd82612370565b5b9050919050565b611bce81612304565b611c0d576040517f08c379a0000000000000000000000000000000000000000000000000000000008152600401611c049061381e565b60405180910390fd5b50565b600033905090565b816004600083815260200190815260200160002060006101000a81548173ffffffffffffffffffffffffffffffffffffffff021916908373ffffffffffffffffffffffffffffffffffffffff160217905550808273ffffffffffffffffffffffffffffffffffffffff16611c8b83610ea6565b73ffffffffffffffffffffffffffffffffffffffff167f8c5be1e5ebec7d5bd14f71427d1e84f3dd0314c0f7b2291e5b200ac8c7c3b92560405160405180910390a45050565b600080611cdd83610ea6565b90508073ffffffffffffffffffffffffffffffffffffffff168473ffffffffffffffffffffffffffffffffffffffff161480611d1f5750611d1e81856119bd565b5b80611d5d57508373ffffffffffffffffffffffffffffffffffffffff16611d458461076f565b73ffffffffffffffffffffffffffffffffffffffff16145b91505092915050565b8273ffffffffffffffffffffffffffffffffffffffff16611d8682610ea6565b73ffffffffffffffffffffffffffffffffffffffff1614611ddc576040517f08c379a0000000000000000000000000000000000000000000000000000000008152600401611dd390613ab6565b60405180910390fd5b600073ffffffffffffffffffffffffffffffffffffffff168273ffffffffffffffffffffffffffffffffffffffff161415611e4c576040517f08c379a0000000000000000000000000000000000000000000000000000000008152600401611e4390613b48565b60405180910390fd5b611e578383836123da565b611e62600082611c18565b6001600360008573ffffffffffffffffffffffffffffffffffffffff1673ffffffffffffffffffffffffffffffffffffffff1681526020019081526020016000206000828254611eb2919061326b565b925050819055506001600360008473ffffffffffffffffffffffffffffffffffffffff1673ffffffffffffffffffffffffffffffffffffffff1681526020019081526020016000206000828254611f099190613558565b92505081905550816002600083815260200190815260200160002060006101000a81548173ffffffffffffffffffffffffffffffffffffffff021916908373ffffffffffffffffffffffffffffffffffffffff160217905550808273ffffffffffffffffffffffffffffffffffffffff168473ffffffffffffffffffffffffffffffffffffffff167fddf252ad1be2c89b69c2b068fc378daa952ba7f163c4a11628f55a4df523b3ef60405160405180910390a4611fc88383836123ea565b505050565b8173ffffffffffffffffffffffffffffffffffffffff168373ffffffffffffffffffffffffffffffffffffffff16141561203c576040517f08c379a000000000000000000000000000000000000000000000000000000000815260040161203390613bb4565b60405180910390fd5b80600560008573ffffffffffffffffffffffffffffffffffffffff1673ffffffffffffffffffffffffffffffffffffffff16815260200190815260200160002060008473ffffffffffffffffffffffffffffffffffffffff1673ffffffffffffffffffffffffffffffffffffffff16815260200190815260200160002060006101000a81548160ff0219169083151502179055508173ffffffffffffffffffffffffffffffffffffffff168373ffffffffffffffffffffffffffffffffffffffff167f17307eab39ab6107e8899845ad3d59bd9653f200f220920489ca2b5937696c318360405161212d9190612b7e565b60405180910390a3505050565b612145848484611d66565b612151848484846123ef565b612190576040517f08c379a000000000000000000000000000000000000000000000000000000000815260040161218790613c46565b60405180910390fd5b50505050565b60606121a182611bc5565b60006006600084815260200190815260200160002080546121c190613310565b80601f01602080910402602001604051908101604052809291908181526020018280546121ed90613310565b801561223a5780601f1061220f5761010080835404028352916020019161223a565b820191906000526020600020905b81548152906001019060200180831161221d57829003601f168201915b50505050509050600061224b612586565b90506000815114156122615781925050506122a4565b60008251111561229657808260405160200161227e929190613ca2565b604051602081830303815290604052925050506122a4565b61229f8461259d565b925050505b919050565b6122b38383612605565b6122c060008484846123ef565b6122ff576040517f08c379a00000000000000000000000000000000000000000000000000000000081526004016122f690613c46565b60405180910390fd5b505050565b60008073ffffffffffffffffffffffffffffffffffffffff166002600084815260200190815260200160002060009054906101000a900473ffffffffffffffffffffffffffffffffffffffff1673ffffffffffffffffffffffffffffffffffffffff1614159050919050565b60007f01ffc9a7000000000000000000000000000000000000000000000000000000007bffffffffffffffffffffffffffffffffffffffffffffffffffffffff1916827bffffffffffffffffffffffffffffffffffffffffffffffffffffffff1916149050919050565b6123e58383836127df565b505050565b505050565b60006124108473ffffffffffffffffffffffffffffffffffffffff166127e4565b15612579578373ffffffffffffffffffffffffffffffffffffffff1663150b7a02612439611c10565b8786866040518563ffffffff1660e01b815260040161245b9493929190613cc6565b602060405180830381600087803b15801561247557600080fd5b505af19250505080156124a657506040513d601f19601f820116820180604052508101906124a39190613d27565b60015b612529573d80600081146124d6576040519150601f19603f3d011682016040523d82523d6000602084013e6124db565b606091505b50600081511415612521576040517f08c379a000000000000000000000000000000000000000000000000000000000815260040161251890613c46565b60405180910390fd5b805181602001fd5b63150b7a0260e01b7bffffffffffffffffffffffffffffffffffffffffffffffffffffffff1916817bffffffffffffffffffffffffffffffffffffffffffffffffffffffff19161491505061257e565b600190505b949350505050565b606060405180602001604052806000815250905090565b60606125a882611bc5565b60006125b2612586565b905060008151116125d257604051806020016040528060008152506125fd565b806125dc84612807565b6040516020016125ed929190613ca2565b6040516020818303038152906040525b915050919050565b600073ffffffffffffffffffffffffffffffffffffffff168273ffffffffffffffffffffffffffffffffffffffff161415612675576040517f08c379a000000000000000000000000000000000000000000000000000000000815260040161266c90613da0565b60405180910390fd5b61267e81612304565b156126be576040517f08c379a00000000000000000000000000000000000000000000000000000000081526004016126b590613e0c565b60405180910390fd5b6126ca600083836123da565b6001600360008473ffffffffffffffffffffffffffffffffffffffff1673ffffffffffffffffffffffffffffffffffffffff168152602001908152602001600020600082825461271a9190613558565b92505081905550816002600083815260200190815260200160002060006101000a81548173ffffffffffffffffffffffffffffffffffffffff021916908373ffffffffffffffffffffffffffffffffffffffff160217905550808273ffffffffffffffffffffffffffffffffffffffff16600073ffffffffffffffffffffffffffffffffffffffff167fddf252ad1be2c89b69c2b068fc378daa952ba7f163c4a11628f55a4df523b3ef60405160405180910390a46127db600083836123ea565b5050565b505050565b6000808273ffffffffffffffffffffffffffffffffffffffff163b119050919050565b6060600082141561284f576040518060400160405280600181526020017f30000000000000000000000000000000000000000000000000000000000000008152509050612963565b600082905060005b6000821461288157808061286a90613222565b915050600a8261287a9190613527565b9150612857565b60008167ffffffffffffffff81111561289d5761289c612fe3565b5b6040519080825280601f01601f1916602001820160405280156128cf5781602001600182028036833780820191505090505b5090505b6000851461295c576001826128e8919061326b565b9150600a856128f79190613e2c565b60306129039190613558565b60f81b81838151811061291957612918613e5d565b5b60200101907effffffffffffffffffffffffffffffffffffffffffffffffffffffffffffff1916908160001a905350600a856129559190613527565b94506128d3565b8093505050505b919050565b82805461297490613310565b90600052602060002090601f01602090048101928261299657600085556129dd565b82601f106129af57805160ff19168380011785556129dd565b828001600101855582156129dd579182015b828111156129dc5782518255916020019190600101906129c1565b5b5090506129ea91906129ee565b5090565b5b80821115612a075760008160009055506001016129ef565b5090565b6000604051905090565b600080fd5b600080fd5b600073ffffffffffffffffffffffffffffffffffffffff82169050919050565b6000612a4a82612a1f565b9050919050565b612a5a81612a3f565b8114612a6557600080fd5b50565b600081359050612a7781612a51565b92915050565b600060208284031215612a9357612a92612a15565b5b6000612aa184828501612a68565b91505092915050565b6000819050919050565b612abd81612aaa565b82525050565b6000602082019050612ad86000830184612ab4565b92915050565b60007fffffffff0000000000000000000000000000000000000000000000000000000082169050919050565b612b1381612ade565b8114612b1e57600080fd5b50565b600081359050612b3081612b0a565b92915050565b600060208284031215612b4c57612b4b612a15565b5b6000612b5a84828501612b21565b91505092915050565b60008115159050919050565b612b7881612b63565b82525050565b6000602082019050612b936000830184612b6f565b92915050565b600081519050919050565b600082825260208201905092915050565b60005b83811015612bd3578082015181840152602081019050612bb8565b83811115612be2576000848401525b50505050565b6000601f19601f8301169050919050565b6000612c0482612b99565b612c0e8185612ba4565b9350612c1e818560208601612bb5565b612c2781612be8565b840191505092915050565b60006020820190508181036000830152612c4c8184612bf9565b905092915050565b612c5d81612aaa565b8114612c6857600080fd5b50565b600081359050612c7a81612c54565b92915050565b600060208284031215612c9657612c95612a15565b5b6000612ca484828501612c6b565b91505092915050565b612cb681612a3f565b82525050565b6000602082019050612cd16000830184612cad565b92915050565b60008060408385031215612cee57612ced612a15565b5b6000612cfc85828601612a68565b9250506020612d0d85828601612c6b565b9150509250929050565b6000819050919050565b6000612d3c612d37612d3284612a1f565b612d17565b612a1f565b9050919050565b6000612d4e82612d21565b9050919050565b6000612d6082612d43565b9050919050565b612d7081612d55565b82525050565b6000602082019050612d8b6000830184612d67565b92915050565b600080600060608486031215612daa57612da9612a15565b5b6000612db886828701612a68565b9350506020612dc986828701612a68565b9250506040612dda86828701612c6b565b9150509250925092565b6000819050919050565b612df781612de4565b8114612e0257600080fd5b50565b600081359050612e1481612dee565b92915050565b60008060408385031215612e3157612e30612a15565b5b6000612e3f85828601612e05565b9250506020612e5085828601612c6b565b9150509250929050565b6000604082019050612e6f6000830185612b6f565b612e7c6020830184612ab4565b9392505050565b612e8c81612de4565b82525050565b6000602082019050612ea76000830184612e83565b92915050565b600060208284031215612ec357612ec2612a15565b5b6000612ed184828501612e05565b91505092915050565b612ee381612b63565b8114612eee57600080fd5b50565b600081359050612f0081612eda565b92915050565b60008060408385031215612f1d57612f1c612a15565b5b6000612f2b85828601612a68565b9250506020612f3c85828601612ef1565b9150509250929050565b600081519050919050565b600082825260208201905092915050565b6000612f6d82612f46565b612f778185612f51565b9350612f87818560208601612bb5565b612f9081612be8565b840191505092915050565b6000606082019050612fb06000830186612b6f565b8181036020830152612fc28185612f62565b9050612fd16040830184612ab4565b949350505050565b600080fd5b600080fd5b7f4e487b7100000000000000000000000000000000000000000000000000000000600052604160045260246000fd5b61301b82612be8565b810181811067ffffffffffffffff8211171561303a57613039612fe3565b5b80604052505050565b600061304d612a0b565b90506130598282613012565b919050565b600067ffffffffffffffff82111561307957613078612fe3565b5b61308282612be8565b9050602081019050919050565b82818337600083830152505050565b60006130b16130ac8461305e565b613043565b9050828152602081018484840111156130cd576130cc612fde565b5b6130d884828561308f565b509392505050565b600082601f8301126130f5576130f4612fd9565b5b813561310584826020860161309e565b91505092915050565b6000806000806080858703121561312857613127612a15565b5b600061313687828801612a68565b945050602061314787828801612a68565b935050604061315887828801612c6b565b925050606085013567ffffffffffffffff81111561317957613178612a1a565b5b613185878288016130e0565b91505092959194509250565b600060208201905081810360008301526131ab8184612f62565b905092915050565b600080604083850312156131ca576131c9612a15565b5b60006131d885828601612a68565b92505060206131e985828601612a68565b9150509250929050565b7f4e487b7100000000000000000000000000000000000000000000000000000000600052601160045260246000fd5b600061322d82612aaa565b91507fffffffffffffffffffffffffffffffffffffffffffffffffffffffffffffffff8214156132605761325f6131f3565b5b600182019050919050565b600061327682612aaa565b915061328183612aaa565b925082821015613294576132936131f3565b5b828203905092915050565b6000815190506132ae81612c54565b92915050565b6000602082840312156132ca576132c9612a15565b5b60006132d88482850161329f565b91505092915050565b7f4e487b7100000000000000000000000000000000000000000000000000000000600052602260045260246000fd5b6000600282049050600182168061332857607f821691505b6020821081141561333c5761333b6132e1565b5b50919050565b7f4552433732313a20617070726f76616c20746f2063757272656e74206f776e6560008201527f7200000000000000000000000000000000000000000000000000000000000000602082015250565b600061339e602183612ba4565b91506133a982613342565b604082019050919050565b600060208201905081810360008301526133cd81613391565b9050919050565b7f4552433732313a20617070726f76652063616c6c6572206973206e6f7420746f60008201527f6b656e206f776e6572206e6f7220617070726f76656420666f7220616c6c0000602082015250565b6000613430603e83612ba4565b915061343b826133d4565b604082019050919050565b6000602082019050818103600083015261345f81613423565b9050919050565b7f4552433732313a2063616c6c6572206973206e6f7420746f6b656e206f776e6560008201527f72206e6f7220617070726f766564000000000000000000000000000000000000602082015250565b60006134c2602e83612ba4565b91506134cd82613466565b604082019050919050565b600060208201905081810360008301526134f1816134b5565b9050919050565b7f4e487b7100000000000000000000000000000000000000000000000000000000600052601260045260246000fd5b600061353282612aaa565b915061353d83612aaa565b92508261354d5761354c6134f8565b5b828204905092915050565b600061356382612aaa565b915061356e83612aaa565b9250827fffffffffffffffffffffffffffffffffffffffffffffffffffffffffffffffff038211156135a3576135a26131f3565b5b828201905092915050565b6000819050919050565b60008160001b9050919050565b60006135e06135db6135d6846135ae565b6135b8565b612de4565b9050919050565b6135f0816135c5565b82525050565b600060208201905061360b60008301846135e7565b92915050565b60008151905061362081612a51565b92915050565b60006020828403121561363c5761363b612a15565b5b600061364a84828501613611565b91505092915050565b6000819050919050565b61366e61366982612de4565b613653565b82525050565b6000819050919050565b61368f61368a82612aaa565b613674565b82525050565b60006136a1828561365d565b6020820191506136b1828461367e565b6020820191508190509392505050565b600067ffffffffffffffff8211156136dc576136db612fe3565b5b602082029050602081019050919050565b600080fd5b6000613705613700846136c1565b613043565b90508083825260208201905060208402830185811115613728576137276136ed565b5b835b81811015613751578061373d888261329f565b84526020840193505060208101905061372a565b5050509392505050565b600082601f8301126137705761376f612fd9565b5b81516137808482602086016136f2565b91505092915050565b60006020828403121561379f5761379e612a15565b5b600082015167ffffffffffffffff8111156137bd576137bc612a1a565b5b6137c98482850161375b565b91505092915050565b7f4552433732313a20696e76616c696420746f6b656e2049440000000000000000600082015250565b6000613808601883612ba4565b9150613813826137d2565b602082019050919050565b60006020820190508181036000830152613837816137fb565b9050919050565b7f4552433732313a2061646472657373207a65726f206973206e6f74206120766160008201527f6c6964206f776e65720000000000000000000000000000000000000000000000602082015250565b600061389a602983612ba4565b91506138a58261383e565b604082019050919050565b600060208201905081810360008301526138c98161388d565b9050919050565b60006040820190506138e56000830185612e83565b6138f26020830184612ab4565b9392505050565b600061390c6139078461305e565b613043565b90508281526020810184848401111561392857613927612fde565b5b613933848285612bb5565b509392505050565b600082601f8301126139505761394f612fd9565b5b81516139608482602086016138f9565b91505092915050565b60006020828403121561397f5761397e612a15565b5b600082015167ffffffffffffffff81111561399d5761399c612a1a565b5b6139a98482850161393b565b91505092915050565b7f45524337323155524953746f726167653a2055524920736574206f66206e6f6e60008201527f6578697374656e7420746f6b656e000000000000000000000000000000000000602082015250565b6000613a0e602e83612ba4565b9150613a19826139b2565b604082019050919050565b60006020820190508181036000830152613a3d81613a01565b9050919050565b7f4552433732313a207472616e736665722066726f6d20696e636f72726563742060008201527f6f776e6572000000000000000000000000000000000000000000000000000000602082015250565b6000613aa0602583612ba4565b9150613aab82613a44565b604082019050919050565b60006020820190508181036000830152613acf81613a93565b9050919050565b7f4552433732313a207472616e7366657220746f20746865207a65726f2061646460008201527f7265737300000000000000000000000000000000000000000000000000000000602082015250565b6000613b32602483612ba4565b9150613b3d82613ad6565b604082019050919050565b60006020820190508181036000830152613b6181613b25565b9050919050565b7f4552433732313a20617070726f766520746f2063616c6c657200000000000000600082015250565b6000613b9e601983612ba4565b9150613ba982613b68565b602082019050919050565b60006020820190508181036000830152613bcd81613b91565b9050919050565b7f4552433732313a207472616e7366657220746f206e6f6e20455243373231526560008201527f63656976657220696d706c656d656e7465720000000000000000000000000000602082015250565b6000613c30603283612ba4565b9150613c3b82613bd4565b604082019050919050565b60006020820190508181036000830152613c5f81613c23565b9050919050565b600081905092915050565b6000613c7c82612b99565b613c868185613c66565b9350613c96818560208601612bb5565b80840191505092915050565b6000613cae8285613c71565b9150613cba8284613c71565b91508190509392505050565b6000608082019050613cdb6000830187612cad565b613ce86020830186612cad565b613cf56040830185612ab4565b8181036060830152613d078184612f62565b905095945050505050565b600081519050613d2181612b0a565b92915050565b600060208284031215613d3d57613d3c612a15565b5b6000613d4b84828501613d12565b91505092915050565b7f4552433732313a206d696e7420746f20746865207a65726f2061646472657373600082015250565b6000613d8a602083612ba4565b9150613d9582613d54565b602082019050919050565b60006020820190508181036000830152613db981613d7d565b9050919050565b7f4552433732313a20746f6b656e20616c7265616479206d696e74656400000000600082015250565b6000613df6601c83612ba4565b9150613e0182613dc0565b602082019050919050565b60006020820190508181036000830152613e2581613de9565b9050919050565b6000613e3782612aaa565b9150613e4283612aaa565b925082613e5257613e516134f8565b5b828206905092915050565b7f4e487b7100000000000000000000000000000000000000000000000000000000600052603260045260246000fdfe697066733a2f2f516d534e63416861647661646b4867756b6558536d676d583651314735795158455662416b6952476b766862594b697066733a2f2f516d5873744d62663431324d474e6e48787a417753413152433576713856624c46364d62766d5a547a4a3642566aa2646970667358221220cb21b7211610bd6ef21a9241ebb99d871d2758f221f6a921df645ec4c236fdd964736f6c63430008090033",
  "linkReferences": {},
  "deployedLinkReferences": {}
}