{
  "_format": "hh-sol-artifact-1",
  "contractName": "UsingTellor",
  "sourceName": "usingtellor/contracts/UsingTellor.sol",
  "abi": [
    {
      "inputs": [
        {
          "internalType": "address payable",
          "name": "_tellor",
          "type": "address"
        }
      ],
      "stateMutability": "nonpayable",
      "type": "constructor"
    },
    {
      "inputs": [
        {
          "internalType": "bytes32",
          "name": "_queryId",
          "type": "bytes32"
        }
      ],
      "name": "getCurrentValue",
      "outputs": [
        {
          "internalType": "bool",
          "name": "_ifRetrieve",
          "type": "bool"
        },
        {
          "internalType": "bytes",
          "name": "_value",
          "type": "bytes"
        },
        {
          "internalType": "uint256",
          "name": "_timestampRetrieved",
          "type": "uint256"
        }
      ],
      "stateMutability": "view",
      "type": "function"
    },
    {
      "inputs": [
        {
          "internalType": "bytes32",
          "name": "_queryId",
          "type": "bytes32"
        },
        {
          "internalType": "uint256",
          "name": "_timestamp",
          "type": "uint256"
        }
      ],
      "name": "getDataBefore",
      "outputs": [
        {
          "internalType": "bool",
          "name": "_ifRetrieve",
          "type": "bool"
        },
        {
          "internalType": "bytes",
          "name": "_value",
          "type": "bytes"
        },
        {
          "internalType": "uint256",
          "name": "_timestampRetrieved",
          "type": "uint256"
        }
      ],
      "stateMutability": "view",
      "type": "function"
    },
    {
      "inputs": [
        {
          "internalType": "bytes32",
          "name": "_queryId",
          "type": "bytes32"
        },
        {
          "internalType": "uint256",
          "name": "_timestamp",
          "type": "uint256"
        }
      ],
      "name": "getIndexForDataBefore",
      "outputs": [
        {
          "internalType": "bool",
          "name": "_found",
          "type": "bool"
        },
        {
          "internalType": "uint256",
          "name": "_index",
          "type": "uint256"
        }
      ],
      "stateMutability": "view",
      "type": "function"
    },
    {
      "inputs": [
        {
          "internalType": "bytes32",
          "name": "_queryId",
          "type": "bytes32"
        }
      ],
      "name": "getNewValueCountbyQueryId",
      "outputs": [
        {
          "internalType": "uint256",
          "name": "",
          "type": "uint256"
        }
      ],
      "stateMutability": "view",
      "type": "function"
    },
    {
      "inputs": [
        {
          "internalType": "bytes32",
          "name": "_queryId",
          "type": "bytes32"
        },
        {
          "internalType": "uint256",
          "name": "_index",
          "type": "uint256"
        }
      ],
      "name": "getTimestampbyQueryIdandIndex",
      "outputs": [
        {
          "internalType": "uint256",
          "name": "",
          "type": "uint256"
        }
      ],
      "stateMutability": "view",
      "type": "function"
    },
    {
      "inputs": [
        {
          "internalType": "bytes32",
          "name": "_queryId",
          "type": "bytes32"
        },
        {
          "internalType": "uint256",
          "name": "_timestamp",
          "type": "uint256"
        }
      ],
      "name": "isInDispute",
      "outputs": [
        {
          "internalType": "bool",
          "name": "",
          "type": "bool"
        }
      ],
      "stateMutability": "view",
      "type": "function"
    },
    {
      "inputs": [
        {
          "internalType": "bytes32",
          "name": "_queryId",
          "type": "bytes32"
        },
        {
          "internalType": "uint256",
          "name": "_timestamp",
          "type": "uint256"
        }
      ],
      "name": "retrieveData",
      "outputs": [
        {
          "internalType": "bytes",
          "name": "",
          "type": "bytes"
        }
      ],
      "stateMutability": "view",
      "type": "function"
    },
    {
      "inputs": [],
      "name": "tellor",
      "outputs": [
        {
          "internalType": "contract ITellor",
          "name": "",
          "type": "address"
        }
      ],
      "stateMutability": "view",
      "type": "function"
    }
  ],
  "bytecode": "0x60806040523480156200001157600080fd5b5060405162001893380380620018938339818101604052810190620000379190620000e8565b806000806101000a81548173ffffffffffffffffffffffffffffffffffffffff021916908373ffffffffffffffffffffffffffffffffffffffff160217905550506200011a565b600080fd5b600073ffffffffffffffffffffffffffffffffffffffff82169050919050565b6000620000b08262000083565b9050919050565b620000c281620000a3565b8114620000ce57600080fd5b50565b600081519050620000e281620000b7565b92915050565b6000602082840312156200010157620001006200007e565b5b60006200011184828501620000d1565b91505092915050565b611769806200012a6000396000f3fe608060405234801561001057600080fd5b50600436106100885760003560e01c8063a792765f1161005b578063a792765f1461013c578063adf1639d1461016e578063c5958af9146101a0578063ce5e11bf146101d057610088565b80631959ad5b1461008d57806329449085146100ab57806344e87f91146100dc57806377b03e0d1461010c575b600080fd5b610095610200565b6040516100a29190610f3f565b60405180910390f35b6100c560048036038101906100c09190610fda565b610224565b6040516100d3929190611044565b60405180910390f35b6100f660048036038101906100f19190610fda565b61039f565b604051610103919061106d565b60405180910390f35b61012660048036038101906101219190611088565b6106a2565b60405161013391906110b5565b60405180910390f35b61015660048036038101906101519190610fda565b6108d7565b60405161016593929190611169565b60405180910390f35b61018860048036038101906101839190611088565b610989565b60405161019793929190611169565b60405180910390f35b6101ba60048036038101906101b59190610fda565b610a42565b6040516101c791906111a7565b60405180910390f35b6101ea60048036038101906101e59190610fda565b610c86565b6040516101f791906110b5565b60405180910390f35b60008054906101000a900473ffffffffffffffffffffffffffffffffffffffff1681565b6000806000610232856106a2565b9050600081111561038f5760008060009050600060018461025391906111f8565b905060006102618984610c86565b905087811061027b57600080965096505050505050610398565b6102858983610c86565b9050878110156102a057600182965096505050505050610398565b5b60011561038a57826001600285856102b991906111f8565b6102c3919061125b565b6102cd919061128c565b6102d7919061128c565b93506102e38985610c86565b9050878110156103355760006103058a600187610300919061128c565b610c86565b90508881106103205760018597509750505050505050610398565b60018561032d919061128c565b935050610385565b600061034d8a60018761034891906111f8565b610c86565b905088811015610374576001808661036591906111f8565b97509750505050505050610398565b60018561038191906111f8565b9250505b6102a1565b505050505b60008092509250505b9250929050565b6000807318431fd88adf138e8b979a7246eb58ea7126ea1673ffffffffffffffffffffffffffffffffffffffff1660008054906101000a900473ffffffffffffffffffffffffffffffffffffffff1673ffffffffffffffffffffffffffffffffffffffff16148061046f575073e8218cacb0a5421bc6409e498d9f8cc8869945ea73ffffffffffffffffffffffffffffffffffffffff1660008054906101000a900473ffffffffffffffffffffffffffffffffffffffff1673ffffffffffffffffffffffffffffffffffffffff16145b1561053e5760007388df592f8eb5d7bd38bfef7deb0fbc02cf3778a090508073ffffffffffffffffffffffffffffffffffffffff1663699f200f7fefa19baa864049f50491093580c5433e97e8d5e41f8db1a61108b4fa44cacd936040518263ffffffff1660e01b81526004016104e6919061132a565b60206040518083038186803b1580156104fe57600080fd5b505afa158015610512573d6000803e3d6000fd5b505050506040513d601f19601f820116820180604052508101906105369190611383565b9150506105df565b60008054906101000a900473ffffffffffffffffffffffffffffffffffffffff1673ffffffffffffffffffffffffffffffffffffffff16635aa6e6756040518163ffffffff1660e01b815260040160206040518083038186803b1580156105a457600080fd5b505afa1580156105b8573d6000803e3d6000fd5b505050506040513d601f19601f820116820180604052508101906105dc9190611383565b90505b60008173ffffffffffffffffffffffffffffffffffffffff1663248638e586866040516020016106109291906113f2565b604051602081830303815290604052805190602001206040518263ffffffff1660e01b8152600401610642919061142d565b60006040518083038186803b15801561065a57600080fd5b505afa15801561066e573d6000803e3d6000fd5b505050506040513d6000823e3d601f19601f8201168201806040525081019061069791906115a5565b511191505092915050565b60007318431fd88adf138e8b979a7246eb58ea7126ea1673ffffffffffffffffffffffffffffffffffffffff1660008054906101000a900473ffffffffffffffffffffffffffffffffffffffff1673ffffffffffffffffffffffffffffffffffffffff161480610771575073e8218cacb0a5421bc6409e498d9f8cc8869945ea73ffffffffffffffffffffffffffffffffffffffff1660008054906101000a900473ffffffffffffffffffffffffffffffffffffffff1673ffffffffffffffffffffffffffffffffffffffff16145b156108265760008054906101000a900473ffffffffffffffffffffffffffffffffffffffff1673ffffffffffffffffffffffffffffffffffffffff166335e72432836040518263ffffffff1660e01b81526004016107cf919061142d565b60206040518083038186803b1580156107e757600080fd5b505afa1580156107fb573d6000803e3d6000fd5b505050506040513d601f19601f8201168201806040525081019061081f91906115ee565b90506108d2565b60008054906101000a900473ffffffffffffffffffffffffffffffffffffffff1673ffffffffffffffffffffffffffffffffffffffff166377b03e0d836040518263ffffffff1660e01b815260040161087f919061142d565b60206040518083038186803b15801561089757600080fd5b505afa1580156108ab573d6000803e3d6000fd5b505050506040513d601f19601f820116820180604052508101906108cf91906115ee565b90505b919050565b6000606060008060006108ea8787610224565b91509150816109145760006040518060200160405280600081525060009450945094505050610982565b60006109208883610c86565b905061092c8882610a42565b945060405180602001604052806000815250805190602001208580519060200120146109645760018582955095509550505050610982565b60006040518060200160405280600081525060009550955095505050505b9250925092565b60006060600080610999856106a2565b905060008114156109c457600060405180602001604052806000815250600093509350935050610a3b565b60006109dc866001846109d791906111f8565b610c86565b90506109e88682610a42565b93506040518060200160405280600081525080519060200120848051906020012014610a1f57600184829450945094505050610a3b565b6000604051806020016040528060008152508294509450945050505b9193909250565b60607318431fd88adf138e8b979a7246eb58ea7126ea1673ffffffffffffffffffffffffffffffffffffffff1660008054906101000a900473ffffffffffffffffffffffffffffffffffffffff1673ffffffffffffffffffffffffffffffffffffffff161480610b11575073e8218cacb0a5421bc6409e498d9f8cc8869945ea73ffffffffffffffffffffffffffffffffffffffff1660008054906101000a900473ffffffffffffffffffffffffffffffffffffffff1673ffffffffffffffffffffffffffffffffffffffff16145b15610bcd5760008054906101000a900473ffffffffffffffffffffffffffffffffffffffff1673ffffffffffffffffffffffffffffffffffffffff16630b2d2b0d84846040518363ffffffff1660e01b8152600401610b7192919061161b565b60006040518083038186803b158015610b8957600080fd5b505afa158015610b9d573d6000803e3d6000fd5b505050506040513d6000823e3d601f19601f82011682018060405250810190610bc691906116ea565b9050610c80565b60008054906101000a900473ffffffffffffffffffffffffffffffffffffffff1673ffffffffffffffffffffffffffffffffffffffff1663c5958af984846040518363ffffffff1660e01b8152600401610c2892919061161b565b60006040518083038186803b158015610c4057600080fd5b505afa158015610c54573d6000803e3d6000fd5b505050506040513d6000823e3d601f19601f82011682018060405250810190610c7d91906116ea565b90505b92915050565b60007318431fd88adf138e8b979a7246eb58ea7126ea1673ffffffffffffffffffffffffffffffffffffffff1660008054906101000a900473ffffffffffffffffffffffffffffffffffffffff1673ffffffffffffffffffffffffffffffffffffffff161480610d55575073e8218cacb0a5421bc6409e498d9f8cc8869945ea73ffffffffffffffffffffffffffffffffffffffff1660008054906101000a900473ffffffffffffffffffffffffffffffffffffffff1673ffffffffffffffffffffffffffffffffffffffff16145b15610e0c5760008054906101000a900473ffffffffffffffffffffffffffffffffffffffff1673ffffffffffffffffffffffffffffffffffffffff16637c37b8b484846040518363ffffffff1660e01b8152600401610db592919061161b565b60206040518083038186803b158015610dcd57600080fd5b505afa158015610de1573d6000803e3d6000fd5b505050506040513d601f19601f82011682018060405250810190610e0591906115ee565b9050610eba565b60008054906101000a900473ffffffffffffffffffffffffffffffffffffffff1673ffffffffffffffffffffffffffffffffffffffff1663ce5e11bf84846040518363ffffffff1660e01b8152600401610e6792919061161b565b60206040518083038186803b158015610e7f57600080fd5b505afa158015610e93573d6000803e3d6000fd5b505050506040513d601f19601f82011682018060405250810190610eb791906115ee565b90505b92915050565b600073ffffffffffffffffffffffffffffffffffffffff82169050919050565b6000819050919050565b6000610f05610f00610efb84610ec0565b610ee0565b610ec0565b9050919050565b6000610f1782610eea565b9050919050565b6000610f2982610f0c565b9050919050565b610f3981610f1e565b82525050565b6000602082019050610f546000830184610f30565b92915050565b6000604051905090565b600080fd5b600080fd5b6000819050919050565b610f8181610f6e565b8114610f8c57600080fd5b50565b600081359050610f9e81610f78565b92915050565b6000819050919050565b610fb781610fa4565b8114610fc257600080fd5b50565b600081359050610fd481610fae565b92915050565b60008060408385031215610ff157610ff0610f64565b5b6000610fff85828601610f8f565b925050602061101085828601610fc5565b9150509250929050565b60008115159050919050565b61102f8161101a565b82525050565b61103e81610fa4565b82525050565b60006040820190506110596000830185611026565b6110666020830184611035565b9392505050565b60006020820190506110826000830184611026565b92915050565b60006020828403121561109e5761109d610f64565b5b60006110ac84828501610f8f565b91505092915050565b60006020820190506110ca6000830184611035565b92915050565b600081519050919050565b600082825260208201905092915050565b60005b8381101561110a5780820151818401526020810190506110ef565b83811115611119576000848401525b50505050565b6000601f19601f8301169050919050565b600061113b826110d0565b61114581856110db565b93506111558185602086016110ec565b61115e8161111f565b840191505092915050565b600060608201905061117e6000830186611026565b81810360208301526111908185611130565b905061119f6040830184611035565b949350505050565b600060208201905081810360008301526111c18184611130565b905092915050565b7f4e487b7100000000000000000000000000000000000000000000000000000000600052601160045260246000fd5b600061120382610fa4565b915061120e83610fa4565b925082821015611221576112206111c9565b5b828203905092915050565b7f4e487b7100000000000000000000000000000000000000000000000000000000600052601260045260246000fd5b600061126682610fa4565b915061127183610fa4565b9250826112815761128061122c565b5b828204905092915050565b600061129782610fa4565b91506112a283610fa4565b9250827fffffffffffffffffffffffffffffffffffffffffffffffffffffffffffffffff038211156112d7576112d66111c9565b5b828201905092915050565b6000819050919050565b60008160001b9050919050565b600061131461130f61130a846112e2565b6112ec565b610f6e565b9050919050565b611324816112f9565b82525050565b600060208201905061133f600083018461131b565b92915050565b600061135082610ec0565b9050919050565b61136081611345565b811461136b57600080fd5b50565b60008151905061137d81611357565b92915050565b60006020828403121561139957611398610f64565b5b60006113a78482850161136e565b91505092915050565b6000819050919050565b6113cb6113c682610f6e565b6113b0565b82525050565b6000819050919050565b6113ec6113e782610fa4565b6113d1565b82525050565b60006113fe82856113ba565b60208201915061140e82846113db565b6020820191508190509392505050565b61142781610f6e565b82525050565b6000602082019050611442600083018461141e565b92915050565b600080fd5b7f4e487b7100000000000000000000000000000000000000000000000000000000600052604160045260246000fd5b6114858261111f565b810181811067ffffffffffffffff821117156114a4576114a361144d565b5b80604052505050565b60006114b7610f5a565b90506114c3828261147c565b919050565b600067ffffffffffffffff8211156114e3576114e261144d565b5b602082029050602081019050919050565b600080fd5b60008151905061150881610fae565b92915050565b600061152161151c846114c8565b6114ad565b90508083825260208201905060208402830185811115611544576115436114f4565b5b835b8181101561156d578061155988826114f9565b845260208401935050602081019050611546565b5050509392505050565b600082601f83011261158c5761158b611448565b5b815161159c84826020860161150e565b91505092915050565b6000602082840312156115bb576115ba610f64565b5b600082015167ffffffffffffffff8111156115d9576115d8610f69565b5b6115e584828501611577565b91505092915050565b60006020828403121561160457611603610f64565b5b6000611612848285016114f9565b91505092915050565b6000604082019050611630600083018561141e565b61163d6020830184611035565b9392505050565b600080fd5b600067ffffffffffffffff8211156116645761166361144d565b5b61166d8261111f565b9050602081019050919050565b600061168d61168884611649565b6114ad565b9050828152602081018484840111156116a9576116a8611644565b5b6116b48482856110ec565b509392505050565b600082601f8301126116d1576116d0611448565b5b81516116e184826020860161167a565b91505092915050565b600060208284031215611700576116ff610f64565b5b600082015167ffffffffffffffff81111561171e5761171d610f69565b5b61172a848285016116bc565b9150509291505056fea264697066735822122014a12ce195b69fe7f8c6e6ec1a42ad85057dec3020dbedf13cb6890033faa02064736f6c63430008090033",
  "linkReferences": {},
  "deployedLinkReferences": {}
}